:100000000C9454000C947C000C947C000C947C00A8
:100010000C947C000C947C000C947C000C947C0070
:100020000C947C000C947C000C947C000C947C0060
:100030000C947C000C947C000C947C000C947C0050
:100040000C948E000C947C000C947C000C947C002E
:100050000C947C000C947C000C947C000C947C0030
:100060000C9465020C947C0001020408102040806E
:1000700001020408102001020408102004040404F2
:100080000404040402020202020203030303030342
:1000900000000000250028002B00000000002400C4
:1000A00027002A008A00290211241FBECFEFD8E0C2
:1000B000DEBFCDBF11E0A0E0B1E0E4E3F7E002C0B5
:1000C00005900D92A631B107D9F721E0A6E1B1E084
:1000D00001C01D92A63EB207E1F710E0C4E5D0E0F2
:1000E00004C02197FE010E949203C235D107C9F7CF
:1000F0000E947F000C9498030C94000008950E94C5
:10010000D8000E947E00C0E0D0E02097F1F30E946A
:100110000000FBCF86E191E00C9450011F920F92FA
:100120000FB60F9211242F933F938F939F93AF930A
:10013000BF9380911F0190912001A0912101B09166
:10014000220130911E0123E0230F2D3720F4019668
:10015000A11DB11D05C026E8230F0296A11DB11DEA
:1001600020931E0180931F0190932001A0932101F1
:10017000B09322018091230190912401A091250147
:10018000B09126010196A11DB11D8093230190938A
:100190002401A0932501B0932601BF91AF919F91B7
:1001A0008F913F912F910F900FBE0F901F90189538
:1001B000789484B5826084BD84B5816084BD85B542
:1001C000826085BD85B5816085BDEEE6F0E0808109
:1001D00081608083E1E8F0E010828081826080832A
:1001E000808181608083E0E8F0E0808181608083AD
:1001F000E1EBF0E0808184608083E0EBF0E08081DF
:1002000081608083EAE7F0E0808184608083808180
:100210008260808380818160808380818068808328
:100220001092C1000895CF93DF93EC0183E08A839D
:1002300085E08B8361E083E00E94520161E08B8165
:10024000DF91CF910C945201CF93DF93EC0182E0C8
:100250008C8384E08D8387E08E8388E08F8361E0E8
:1002600082E00E94520161E08D810E94520161E0B2
:100270008E810E94520161E08F81DF91CF910C94B9
:100280005201CF93DF93EC010E941301CE010E9433
:1002900024018FEF90E099838883DF91CF910895B7
:1002A0000C944101CF93DF9390E0FC01E859FF4F9C
:1002B0002491FC01E458FF4F8491882361F190E080
:1002C000880F991FFC01E656FF4FC591D491FC01A0
:1002D000E057FF4FA591B491611109C09FB7F89401
:1002E0008881209582238883EC912E230BC0623075
:1002F00061F49FB7F8943881822F80958323888397
:10030000EC912E2B2C939FBF06C08FB7F894E881F9
:100310002E2B28838FBFDF91CF91089580915601B6
:1003200090E020915701821B910908959091570107
:1003300080915601981750F4E92FF0E0E85AFE4FEB
:10034000208130E09F5F9093570102C02FEF3FEF75
:10035000C9010895E091570180915601E81730F4E2
:10036000F0E0E85AFE4F808190E008958FEF9FEF14
:1003700008950895CF92DF92EF92FF920F931F930B
:10038000CF93DF937C01262F972F8A018091330131
:10039000882391F0C62FD72F6E01C40ED51ECC1521
:1003A000DD0571F06991D701ED91FC910190F0812B
:1003B000E02DC7010995F3CF642F822F0E942D02F3
:1003C000C801DF91CF911F910F91FF90EF90DF90C7
:1003D000CF900895CF93DF931F92CDB7DEB7698397
:1003E000209133012223D1F020913401203240F0BA
:1003F00021E030E0FC013383228380E090E015C0EF
:1004000080913501E82FF0E0EA5CFE4F99819083FE
:100410008F5F809335018093340105C061E0CE0188
:1004200001960E942D0281E090E00F90DF91CF9124
:100430000895FC011382128288EE93E0A0E0B0E000
:1004400084839583A683B7838AE091E09183808338
:10045000089587E291E00C94190240919A01262FA9
:1004600030E0240F311D21323105DCF42091E5010B
:100470002430C9F4FC0180E090E0861758F43091F4
:100480009A012191DC01A456BE4FA30FB11D2C93FC
:100490000196F3CF80919A01680F60939A0180E0F2
:1004A000089581E0089582E0089585ED8093BC0071
:1004B0008091BC0084FDFCCF1092E501089585EC8D
:1004C0008093BC001092E50108951F920F920FB621
:1004D0000F9211242F933F934F935F936F937F93CA
:1004E0008F939F93AF93BF93EF93FF938091B90046
:1004F000887F803609F49EC078F5883209F45DC0A3
:1005000090F4803109F456C038F4882309F4F5C01A
:10051000883009F44FC0F5C0883109F44EC08032EC
:1005200009F45FC0EEC0803409F46AC058F4803327
:1005300009F457C0883309F0E4C0809378010E9421
:100540005F02DFC0803509F44FC0883509F45DC013
:10055000883409F0D6C0D3C0883909F4C4C0A8F4DF
:10056000883709F467C038F4883609F463C08037E7
:1005700009F460C0C6C0883809F4B5C0803909F4F0
:100580005FC0803809F0BDC05BC0803B09F483C008
:1005900038F4803A09F466C0883A09F47CC0B1C0E6
:1005A000803C09F4A4C0883C09F4A1C0883B09F44C
:1005B00087C0A7C08091E40110C09091BD018091D7
:1005C000BC01981770F5E091BD0181E08E0F80931A
:1005D000BD01F0E0E254FE4F80818093BB0085ECCA
:1005E00083C0809378018BC0E091BD0181E08E0FC4
:1005F0008093BD018091BB00F0E0E254FE4F808308
:100600009091BD018091BC016BC0E091BD0181E082
:100610008E0F8093BD018091BB00F0E0E254FE4F4D
:1006200080838091E30181116AC081E08093E201BF
:1006300084EA5EC083E08093E50110927901CFCF18
:1006400080917901803208F04EC0E091790181E01B
:100650008E0F809379018091BB00F0E0E658FE4F49
:100660008083BDCF0E945F0280917901803230F497
:10067000E0917901F0E0E658FE4F10826091790137
:1006800070E0E091DE01F091DF018AE791E00995E9
:100690001092790136C084E08093E50110929B01AD
:1006A00010929A01E091E001F091E10109958091A9
:1006B0009A01811105C081E080939A0110929C01FA
:1006C000E0919B0181E08E0F80939B01F0E0E45666
:1006D000FE4F80818093BB0090919B0180919A0195
:1006E000981708F47CCF85E88093BC000AC085EC9D
:1006F0008093BC001092E50104C0109278010E9422
:100700005502FF91EF91BF91AF919F918F917F9192
:100710006F915F914F913F912F910F900FBE0F906E
:100720001F901895EE0FFF1F0590F491E02D09948E
:04073000F894FFCF6B
:100734000000E601800000000000EA01BA018E0119
:060744009601AA01B901B3
:00000001FF
