:100000000C9460000C9488000C9488000C94880078
:100010000C9488000C9488000C9488000C94880040
:100020000C9488000C9488000C9488000C94880030
:100030000C9488000C9488000C9488000C94880020
:100040000C9472030C9488000C94EA010C941C022A
:100050000C9488000C9488000C9488000C94880000
:100060000C9451080C948800000000080002010064
:100070000003040700000000000000000102040863
:100080001020408001020408102001020408102002
:10009000040404040404040402020202020203032E
:1000A0000303030300000000250028002B000000CC
:1000B0000000240027002A00B7004C025907BB00AB
:1000C00011241FBECFEFD8E0DEBFCDBF11E0A0E00E
:1000D000B1E0E2EEF7E102C005900D92A638B1075B
:1000E000D9F723E0A6E8B1E001C01D92A030B20725
:1000F000E1F710E0CFE5D0E004C02197FE010E94B7
:10010000740ACC35D107C9F70E94A8000C94E40BFF
:100110000C940000089526E040E052EC61E070E0AD
:1001200086E991E00E94850164E670E080E090E05D
:100130000E94E10386E891E00C94910486E891E046
:100140000E94960464E670E080E090E00C94E10385
:100150000E941D040E948A000E948B00CDEED0E018
:100160000E949E002097E1F30E94ED00F9CF86E8FF
:1001700091E00C94580486E891E00C948404FC010E
:10018000918D228D892F90E0805C9F4F821B910979
:100190008F7399270895FC01918D828D981731F006
:1001A000828DE80FF11D858D90E008958FEF9FEF10
:1001B0000895FC01918D828D981761F0828DDF0189
:1001C000A80FB11D5D968C91928D9F5F9F73928F4A
:1001D00090E008958FEF9FEF089582E492E0892BDD
:1001E00049F080E090E0892B29F00E9442028111C1
:1001F0000C9400000895FC01848DDF01A80FB11D4F
:10020000A35ABF4F2C91848D90E001968F7399274C
:10021000848FA689B7892C93A089B1898C91806439
:100220008C93938D848D981306C00288F389E02DFA
:1002300080818F7D80830895CF93DF93EC01888D3B
:100240008823C9F0EA89FB89808185FD05C0A889DA
:10025000B9898C9186FD0FC00FB607FCF5CF808160
:1002600085FFF2CFA889B9898C9185FFEDCFCE01AA
:100270000E94FB00E7CFDF91CF910895EF92FF92AC
:100280000F931F93CF93DF93EC0181E0888F9B8DB9
:100290008C8D981305C0E889F989808185FD24C07B
:1002A000F62E0B8D10E00F5F1F4F0F731127E02EFE
:1002B0008C8DE8120CC00FB607FCFACFE889F989DB
:1002C000808185FFF5CFCE010E94FB00F1CF8B8DA1
:1002D000FE01E80FF11DE35AFF4FF0820B8FEA8910
:1002E000FB898081806207C0EE89FF896083E8898D
:1002F000F98980818064808381E090E0DF91CF91F3
:100300001F910F91FF90EF900895CF92DF92EF929F
:10031000FF921F93CF93DF93EC016A017B01122FB1
:10032000E889F98982E080834115514E61057105A4
:10033000B1F060E079E08DE390E0A70196010E94C2
:10034000520ADA01C9010197A109B109B695A79529
:1003500097958795AC01411580E15807A8F0E88989
:10036000F989108260E874E88EE190E0A7019601B7
:100370000E94520ABA01A90141505109610971094B
:100380007695679557954795EC85FD855083EE8565
:10039000FF854083188EEC89FD891083EA89FB89EB
:1003A000808180618083EA89FB8980818860808385
:1003B000EA89FB89808180688083EA89FB89808162
:1003C0008F7D8083DF91CF911F91FF90EF90DF9021
:1003D000CF9008951F920F920FB60F9211242F9372
:1003E0008F939F93EF93FF93E091A601F091A70164
:1003F0008081E091AC01F091AD0182FD12C090814D
:100400008091AF018F5F8F732091B001821751F0FF
:10041000E091AF01F0E0EA56FE4F958F8093AF0177
:1004200001C08081FF91EF919F918F912F910F904B
:100430000FBE0F901F9018951F920F920FB60F923C
:1004400011242F933F934F935F936F937F938F93D9
:100450009F93AF93BF93EF93FF9386E991E00E9440
:10046000FB00FF91EF91BF91AF919F918F917F9191
:100470006F915F914F913F912F910F900FBE0F9011
:100480001F90189586E991E00E94BF0021E0892B1A
:1004900009F420E0822F0895E6E9F1E01382128248
:1004A00088EE93E0A0E0B0E084839583A683B783D1
:1004B0008AE091E09183808385EC90E09587848742
:1004C00084EC90E09787868780EC90E0918B808B1E
:1004D00081EC90E0938B828B82EC90E0958B848B07
:1004E00086EC90E0978B868B118E128E138E148E75
:1004F0000895CF92DF92EF92FF920F931F93CF93C5
:10050000DF936C017A018B01C0E0D0E0CE15DF05EE
:1005100089F0D8016D918D01D601ED91FC9101908A
:10052000F081E02DC6010995892B11F47E0102C0EE
:100530002196ECCFC701DF91CF911F910F91FF90D2
:10054000EF90DF90CF9008956115710579F0FB0170
:1005500001900020E9F73197AF01461B570BDC01F2
:10056000ED91FC910280F381E02D099480E090E010
:1005700008950C94A402DC01ED91FC910190F081AE
:10058000E02D099466E171E00C94A4020F931F938F
:10059000CF93DF93EC010E94A4028C01CE010E9454
:1005A000C202800F911FDF91CF911F910F9108958B
:1005B0004F925F926F927F92EF92FF920F931F93F1
:1005C000CF93DF93CDB7DEB7A1970FB6F894DEBF18
:1005D0000FBECDBF7C01FA01CB0119A2223008F475
:1005E0002AE08E010F5D1F4F422E512C612C712C81
:1005F000BF01A30192010E94520AF901CA010150F0
:1006000011096A3014F4605D01C0695CD8016C9313
:10061000232B242B252B61F7B801C7010E94A402CC
:10062000A1960FB6F894DEBF0FBECDBFDF91CF917C
:100630001F910F91FF90EF907F906F905F904F9080
:100640000895CF92DF92EF92FF920F931F93CF9373
:10065000DF93EC016A017B012115310579F4E88112
:10066000F9810190F081E02D642FDF91CF911F91EE
:100670000F91FF90EF90DF90CF9009942A303105D1
:10068000E9F477FF1AC06DE20E94BB028C01442797
:100690005527BA014C195D096E097F092AE0CE0180
:1006A0000E94D802800F911FDF91CF911F910F916F
:1006B000FF90EF90DF90CF9008952AE0B701A60158
:1006C000CE01DF91CF911F910F91FF90EF90DF90BE
:1006D000CF900C94D8029A01AB01770F660B770B81
:1006E0000C9421031F920F920FB60F9211242F9397
:1006F0003F938F939F93AF93BF93809134029091D8
:100700003502A0913602B09137023091330223E0D6
:10071000230F2D3720F40196A11DB11D05C026E839
:10072000230F0296A11DB11D209333028093340242
:1007300090933502A0933602B0933702809138022D
:1007400090913902A0913A02B0913B020196A11D0D
:10075000B11D8093380290933902A0933A02B0936E
:100760003B02BF91AF919F918F913F912F910F903D
:100770000FBE0F901F9018953FB7F89480913802E4
:1007800090913902A0913A02B0913B0226B5A89B04
:1007900005C02F3F19F00196A11DB11D3FBFBA2F13
:1007A000A92F982F8827820F911DA11DB11DBC0173
:1007B000CD0142E0660F771F881F991F4A95D1F738
:1007C00008958F929F92AF92BF92CF92DF92EF9255
:1007D000FF926B017C010E94BC034B015C01C114C0
:1007E000D104E104F10401F10E9426060E94BC0339
:1007F000DC01CB0188199909AA09BB09883E9340FD
:10080000A105B10560F321E0C21AD108E108F108A1
:1008100088EE880E83E0981EA11CB11CC114D1047F
:10082000E104F10419F7DBCFFF90EF90DF90CF9058
:10083000BF90AF909F908F900895789484B5826018
:1008400084BD84B5816084BD85B5826085BD85B574
:10085000816085BDEEE6F0E0808181608083E1E823
:10086000F0E010828081826080838081816080835B
:10087000E0E8F0E0808181608083E1EBF0E080815E
:1008800084608083E0EBF0E0808181608083EAE730
:10089000F0E08081846080838081826080838081B9
:1008A000816080838081806880831092C100089578
:1008B0000F931F93CF93DF93EC01198218821C8250
:1008C0001D821E821F82188619861A861B8667E281
:1008D00071E086E991E00E94C6028AE090E00E9401
:1008E00027068C010E94BB09198308838CE290E0E3
:1008F0000E9427068C010E94A2041B830A83DF91B9
:10090000CF911F910F910895CF93DF93EC018881D0
:1009100099810E9429068A819B81DF91CF910C9455
:100920002906FC01828193810C94DE05FC01828101
:1009300093810C941705DC01ED91FC910190F081FD
:10094000E02D0994FC01118210821582148281E04D
:1009500090E0918780879387828715861486178613
:100960001686168A178A108E118E128E138E148E8A
:10097000158E168E178E10A211A210A611A612A601
:1009800013A6118A108A138A128A158A148A12A24F
:1009900013A214A215A216A217A2089562E570E090
:1009A0008CE392E00E94DA0660E070E08CE392E073
:1009B0000E949B048CE392E00C945607CF93DF9344
:1009C000EC016A817B814AE050E086E991E00E9477
:1009D0006B0368E671E086E991E00E94B9026E81DE
:1009E0007F814AE050E086E991E00E946B0368E66F
:1009F00071E086E991E00E94B9026AE671E086E959
:100A000091E00E94B90268A570E04AE050E086E9F2
:100A100091E00E946B0368E671E086E991E00E9434
:100A2000B90286E991E0DF91CF910C94C202BF92A6
:100A3000CF92DF92EF92FF920F931F93CF93DF93AA
:100A4000EC0146E050E062E570E08CE392E00E9449
:100A500053076E0142E2C40ED11CE12CF12C87E158
:100A6000B82E8CE392E00E942B06892B69F08CE370
:100A700092E00E9433068B25895EF60181936F0117
:100A8000FFEFEF1AFF0AEDCF45E0E416F1040CF496
:100A90005DC088A58AA789A58BA788819981998738
:100AA00088878C819D819B878A878AA190E0998322
:100AB00088838BA190E09D838C832FA1822F8370EC
:100AC00090E03CA1AC0164E0369F400D511D112423
:100AD000598B488B3DA1AC01E4E03E9F400D511D78
:100AE00011245B8B4A8B3EA1F4E03F9F800D911D4A
:100AF00011249D8B8C8B822F8095817088A721FB80
:100B0000002700F910E041E00427017009A7CE0199
:100B10000E94CE04888199812C853D85821B930B90
:100B20009B838A838C819D812E853F85821B930BBD
:100B30009F838E83CE01DF91CF911F910F91FF9004
:100B4000EF90DF90CF90BF900C94DE04DF91CF91B7
:100B50001F910F91FF90EF90DF90CF90BF9008957D
:100B6000CF93DF93EC010E941705888199819D87BF
:100B70008C878C819D819F878E876CA170E080E03F
:100B800090E00E947A0A6E8B7F8B888F998F6DA17F
:100B900070E080E090E00E947A0A6A8F7B8F8C8FF1
:100BA0009D8F6EA170E080E090E00E947A0A6E8FC7
:100BB0007F8F88A399A3DF91CF910895CF93DF937F
:100BC000EC018CE392E00E94C60662E570E08CE3E3
:100BD00092E00E94DA0660EF70E08CE392E00E94FF
:100BE0009B0465E570E08CE392E00E949B048CE33B
:100BF00092E00E94560762E570E08CE392E00E946A
:100C0000DA066BEF70E08CE392E00E949B0460E0F8
:100C100070E08CE392E00E949B048CE392E00E94DF
:100C20005607288539858C859D852817390759F001
:100C30002A853B858E859F852817390721F0CE01AF
:100C40000E94B005EECFDF91CF91089508950C94E6
:100C5000B70A0C944C0B80916C0290E020916D02CD
:100C6000821B9109089590916D0280916C029817F2
:100C700050F4E92FF0E0E259FD4F208130E09F5F12
:100C800090936D0202C02FEF3FEFC9010895E091EC
:100C90006D0280916C02E81730F4F0E0E259FD4FEC
:100CA000808190E008958FEF9FEF08950895CF928F
:100CB000DF92EF92FF920F931F93CF93DF937C010C
:100CC000262F972F8A0180914802882391F0C62F02
:100CD000D72F6E01C40ED51ECC15DD0571F06991BC
:100CE000D701ED91FC910190F081E02DC7010995AC
:100CF000F3CF642F822F0E941908C801DF91CF9192
:100D00001F910F91FF90EF90DF90CF900895CF93B8
:100D1000DF931F92CDB7DEB769832091480222236B
:100D2000D1F020914902203240F021E030E0FC0176
:100D30003383228380E090E015C080914A02E82F3F
:100D4000F0E0E55BFD4F998190838F5F80934A02CD
:100D50008093490205C061E0CE0101960E94190806
:100D600081E090E00F90DF91CF910895FC01138214
:100D7000128288EE93E0A0E0B0E084839583A6839E
:100D8000B7838AE791E091838083089510926D0282
:100D900010926C0210924A02109249020C945D0764
:100DA00081E08093480260936B0210924A02109295
:100DB000490208950C94D0060F93062F21E040912C
:100DC00049026BE472E080916B020E94C3071092AB
:100DD0004A0210924902109248020F9108954F92D0
:100DE0005F926F927F92AF92BF92CF92EF92FF92FB
:100DF0000F931F93CF93DF935C01F62ED42F28011E
:100E00003901EE2021F10E94D006CE2DC43008F029
:100E1000C3E0C150C0F0D501ED91FC91B8E0CB9F8B
:100E2000C0011124A301920104C05695479537953E
:100E300027958A95D2F7CA01B9010190F081E02D7A
:100E4000C5010995E6CF60E0C5010E94DC064D2F83
:100E5000D13208F040E22C2D6EE672E08F2D0E9418
:100E60007B0710926D0280936C02DF91CF911F91EE
:100E70000F91FF90EF90CF90BF90AF907F906F90C9
:100E80005F904F900895CF92EF920F931F93C22ED1
:100E9000E12C00E010E098010E94EF061F910F91F5
:100EA000EF90CF90089521E00C94430761E00C94FB
:100EB000DC068CE392E00C94B6061092FB0281E013
:100EC0008093F9021092F80261E082E10E94220A06
:100ED00061E083E10E94220AE9EBF0E080818E7FED
:100EE000808380818D7F808388E48093B80085E44F
:100EF0008093BC000895413208F043C09091FB02FA
:100F00009111FCCF91E09093FB022093F9022FEF17
:100F100020938E021092D302240F2093D20290933A
:100F2000FA029091FA02880F892B8093FA0280913D
:100F3000F802813061F41092F8028091FA028093F5
:100F4000BB008091BC0083FDF8CF85EC01C085EE2D
:100F50008093BC008091FB028130E1F38091D30249
:100F6000841710F44091D30224ED32E0FB01D90143
:100F70008A2F821B841718F48D918193F9CF842FC7
:100F8000089580E008950F93413208F04AC090918F
:100F9000FB029111FCCF32E03093FB020093F90287
:100FA0003FEF30938E021092D3024093D202FB01A6
:100FB00064ED72E0DB013A2F361B341718F43191DF
:100FC0003D93F9CF1092FA023091FA02880F832BE9
:100FD0008093FA028091F802813061F41092F80255
:100FE0008091FA028093BB008091BC0083FDF8CF12
:100FF00085EC01C085EE8093BC00222321F0809116
:10100000FB028230D1F380918E028F3F79F0809184
:101010008E02803241F080918E02803331F094E074
:1010200005C091E003C092E001C093E0892F0F91C9
:1010300008954091B002262F30E0240F311D213257
:101040003105DCF42091FB022430C9F4FC0180E07E
:1010500090E0861758F43091B0022191DC01AE5433
:10106000BD4FA30FB11D2C930196F3CF8091B00219
:10107000680F6093B00280E0089581E0089582E0F7
:10108000089585ED8093BC008091BC0084FDFCCF69
:101090001092FB02089585EC8093BC001092FB0235
:1010A00008951F920F920FB60F9211242F933F9322
:1010B0004F935F936F937F938F939F93AF93BF9360
:1010C000EF93FF938091B900887F803609F49EC02A
:1010D00078F5883209F45DC090F4803109F456C087
:1010E00038F4882309F4F5C0883009F44FC0F5C0FE
:1010F000883109F44EC0803209F45FC0EEC08034FC
:1011000009F46AC058F4803309F457C0883309F0F1
:10111000E4C080938E020E944B08DFC0803509F442
:101120004FC0883509F45DC0883409F0D6C0D3C0FB
:10113000883909F4C4C0A8F4883709F467C038F4C2
:10114000883609F463C0803709F460C0C6C08838A7
:1011500009F4B5C0803909F45FC0803809F0BDC01A
:101160005BC0803B09F483C038F4803A09F466C060
:10117000883A09F47CC0B1C0803C09F4A4C0883C22
:1011800009F4A1C0883B09F487C0A7C08091FA0286
:1011900010C09091D3028091D202981770F5E0911F
:1011A000D30281E08E0F8093D302F0E0EC52FD4F2A
:1011B00080818093BB0085EC83C080938E028BC0BE
:1011C000E091D30281E08E0F8093D3028091BB0027
:1011D000F0E0EC52FD4F80839091D3028091D202D7
:1011E0006BC0E091D30281E08E0F8093D302809197
:1011F000BB00F0E0EC52FD4F80838091F902811139
:101200006AC081E08093F80284EA5EC083E0809344
:10121000FB0210928F02CFCF80918F02803208F0B4
:101220004EC0E0918F0281E08E0F80938F028091FB
:10123000BB00F0E0E057FD4F8083BDCF0E944B081C
:1012400080918F02803230F4E0918F02F0E0E0571D
:10125000FD4F108260918F0270E0E091F402F091F6
:10126000F50280E992E0099510928F0236C084E081
:101270008093FB021092B1021092B002E091F6024C
:10128000F091F70209958091B002811105C081E0CB
:101290008093B0021092B202E091B10281E08E0F11
:1012A0008093B102F0E0EE54FD4F80818093BB004B
:1012B0009091B1028091B002981708F47CCF85E834
:1012C0008093BC000AC085EC8093BC001092FB02A6
:1012D00004C010928E020E944108FF91EF91BF91CD
:1012E000AF919F918F917F916F915F914F913F91BE
:1012F0002F910F900FBE0F901F901895CF93DF93F3
:10130000EC0183E08C8385E08D8361E083E00E94C3
:10131000E60961E08D81DF91CF910C94E609CF93CE
:10132000DF93EC0182E08E8384E08F8387E08887FF
:1013300088E0898761E082E00E94E60961E08F81B0
:101340000E94E60961E088850E94E60961E08985DE
:10135000DF91CF910C94E609CF93DF93EC010E94CB
:101360007E09CE010E948F09198218821B821A827F
:10137000DF91CF9108950C94AC09833081F028F46B
:10138000813099F08230A1F008958730A9F088303B
:10139000B9F08430D1F4809180008F7D03C08091BA
:1013A00080008F7780938000089584B58F7702C086
:1013B00084B58F7D84BD08958091B0008F7703C080
:1013C0008091B0008F7D8093B0000895CF93DF931C
:1013D00090E0FC01E458FF4F2491FC01E057FF4FDF
:1013E0008491882361F190E0880F991FFC01E255F8
:1013F000FF4FC591D491FC01EC55FF4FA591B491DD
:10140000611109C09FB7F894888120958223888351
:10141000EC912E230BC0623061F49FB7F8943881B1
:10142000822F809583238883EC912E2B2C939FBF52
:1014300006C08FB7F894E8812E2B28838FBFDF91E9
:10144000CF9108951F93CF93DF93282F30E0F901B8
:10145000E859FF4F8491F901E458FF4FD491F90105
:10146000E057FF4FC491CC23C9F0162F81110E9481
:10147000BD09EC2FF0E0EE0FFF1FEC55FF4FA591DB
:10148000B4918FB7F894111105C09C91ED2FE095A0
:10149000E92302C0EC91ED2BEC938FBFDF91CF914C
:1014A0001F910895A1E21A2EAA1BBB1BFD010DC0BE
:1014B000AA1FBB1FEE1FFF1FA217B307E407F50704
:1014C00020F0A21BB30BE40BF50B661F771F881FE0
:1014D000991F1A9469F760957095809590959B0176
:1014E000AC01BD01CF010895EE0FFF1F0590F491EF
:1014F000E02D0994E89409C097FB3EF490958095FF
:10150000709561957F4F8F4F9F4F9923A9F0F92FC9
:1015100096E9BB279395F695879577956795B79547
:10152000F111F8CFFAF4BB0F11F460FF1BC06F5F2D
:101530007F4F8F4F9F4F16C0882311F096E911C03F
:10154000772321F09EE8872F762F05C0662371F060
:1015500096E8862F70E060E02AF09A95660F771F74
:10156000881FDAF7880F9695879597F90895CF9396
:10157000DF938230910510F482E090E0E091FE026A
:10158000F091FF0220E030E0C0E0D0E0309711F1B0
:101590004081518148175907C0F04817590761F435
:1015A00082819381209719F09B838A832BC090932B
:1015B000FF028093FE0226C02115310519F0421763
:1015C000530718F49A01BE01DF01EF010280F38195
:1015D000E02DDCCF2115310509F1281B390B243012
:1015E000310590F412968D919C91139761157105B8
:1015F00021F0FB019383828304C09093FF028093C8
:10160000FE02FD01329644C0FD01E20FF31F8193FB
:101610009193225031092D933C933AC02091FC02C2
:101620003091FD02232B41F42091020130910301FE
:101630003093FD022093FC022091000130910101C2
:101640002115310541F42DB73EB740910401509169
:101650000501241B350BE091FC02F091FD02E2171D
:10166000F307A0F42E1B3F0B2817390778F0AC01C5
:101670004E5F5F4F2417350748F04E0F5F1F5093A2
:10168000FD024093FC028193919302C0E0E0F0E000
:10169000CF01DF91CF9108950F931F93CF93DF93E5
:1016A000009709F48CC0FC013297138212820091DA
:1016B000FE021091FF020115110581F42081318194
:1016C000820F931F2091FC023091FD0228173907E9
:1016D00079F5F093FD02E093FC0271C0D80140E07F
:1016E00050E0AE17BF0750F412962D913C9113971E
:1016F000AD012115310509F1D901F3CF9D01DA01C1
:101700003383228360817181860F971F821793072D
:1017100069F4EC0128813981260F371F2E5F3F4F76
:10172000318320838A819B8193838283452B29F493
:10173000F093FF02E093FE0242C01396FC93EE93F7
:101740001297ED01499159919E01240F351FE2171F
:10175000F30771F480819181840F951F0296119691
:101760009C938E938281938113969C938E93129770
:10177000E0E0F0E0D80112968D919C9113970097CC
:1017800019F0F8018C01F6CF8D919C9198012E5F94
:101790003F4F820F931F2091FC023091FD022817CA
:1017A000390769F4309729F41092FF021092FE0273
:1017B00002C0138212821093FD020093FC02DF919B
:1017C000CF911F910F91089510E0CFE5D0E004C0B4
:1017D000FE010E94740A2196C036D107C9F7F89419
:0217E000FFCF39
:1017E200000000038000000000003E017902BF00FB
:1017F200D900CB001C010D0A006E616E00696E6695
:10180200006F7666002E00436F6E73747275637498
:101812006F7220496E7465726661636520436F6DF5
:101822006D616E6465202D3E204D6F746F720042B3
:1018320041434B5741524400464F52574152440094
:1018420052454C45415345000900427574746F6E10
:10185200205A203A200000000000870657062B0677
:061862003306470656069E
:00000001FF
