:100000000C9460000C9488000C9488000C94880078
:100010000C9488000C9488000C9488000C94880040
:100020000C9488000C9488000C9488000C94880030
:100030000C9488000C9488000C9488000C94880020
:100040000C949D030C9488000C94EA010C941C02FF
:100050000C9488000C9488000C9488000C94880000
:100060000C94700A0C948800000000080002010043
:100070000003040700000000000000000102040863
:100080001020408001020408102001020408102002
:10009000040404040404040402020202020203032E
:1000A0000303030300000000250028002B000000CC
:1000B0000000240027002A00B7004C027809BB008A
:1000C00011241FBECFEFD8E0DEBFCDBF12E0A0E00D
:1000D000B1E0EEE8F1E202C005900D92AA35B10759
:1000E000D9F723E0AAE5B2E001C01D92A43DB20712
:1000F000E1F710E0CFE5D0E004C02197FE010E94B7
:100100003E0ECC35D107C9F70E94A8000C94BA1056
:100110000C940000089526E040E052EC61E070E0AD
:100120008AE692E00E94850164E670E080E090E05B
:100130000E940C048AE592E00C94BE048AE592E0E9
:100140000E945C0664E670E080E090E00C940C0491
:100150000E9448040E948A000E948B00CDEED0E0ED
:100160000E949E002097E1F30E94ED00F9CF8AE5FE
:1001700092E00C9483048AE592E00C94B104FC01B3
:10018000918D228D892F90E0805C9F4F821B910979
:100190008F7399270895FC01918D828D981731F006
:1001A000828DE80FF11D858D90E008958FEF9FEF10
:1001B0000895FC01918D828D981761F0828DDF0189
:1001C000A80FB11D5D968C91928D9F5F9F73928F4A
:1001D00090E008958FEF9FEF089582E492E0892BDD
:1001E00049F080E090E0892B29F00E9442028111C1
:1001F0000C9400000895FC01848DDF01A80FB11D4F
:10020000A35ABF4F2C91848D90E001968F7399274C
:10021000848FA689B7892C93A089B1898C91806439
:100220008C93938D848D981306C00288F389E02DFA
:1002300080818F7D80830895CF93DF93EC01888D3B
:100240008823C9F0EA89FB89808185FD05C0A889DA
:10025000B9898C9186FD0FC00FB607FCF5CF808160
:1002600085FFF2CFA889B9898C9185FFEDCFCE01AA
:100270000E94FB00E7CFDF91CF910895EF92FF92AC
:100280000F931F93CF93DF93EC0181E0888F9B8DB9
:100290008C8D981305C0E889F989808185FD24C07B
:1002A000F62E0B8D10E00F5F1F4F0F731127E02EFE
:1002B0008C8DE8120CC00FB607FCFACFE889F989DB
:1002C000808185FFF5CFCE010E94FB00F1CF8B8DA1
:1002D000FE01E80FF11DE35AFF4FF0820B8FEA8910
:1002E000FB898081806207C0EE89FF896083E8898D
:1002F000F98980818064808381E090E0DF91CF91F3
:100300001F910F91FF90EF900895CF92DF92EF929F
:10031000FF921F93CF93DF93EC016A017B01122FB1
:10032000E889F98982E080834115514E61057105A4
:10033000B1F060E079E08DE390E0A70196010E94C2
:10034000F20DDA01C9010197A109B109B695A79586
:1003500097958795AC01411580E15807A8F0E88989
:10036000F989108260E874E88EE190E0A7019601B7
:100370000E94F20DBA01A9014150510961097109A8
:100380007695679557954795EC85FD855083EE8565
:10039000FF854083188EEC89FD891083EA89FB89EB
:1003A000808180618083EA89FB8980818860808385
:1003B000EA89FB89808180688083EA89FB89808162
:1003C0008F7D8083DF91CF911F91FF90EF90DF9021
:1003D000CF9008951F920F920FB60F9211242F9372
:1003E0008F939F93EF93FF93E0917A02F0917B02BA
:1003F0008081E0918002F091810282FD12C09081A3
:10040000809183028F5F8F7320918402821751F055
:10041000E0918302F0E0E659FD4F958F80938302CF
:1004200001C08081FF91EF919F918F912F910F904B
:100430000FBE0F901F9018951F920F920FB60F923C
:1004400011242F933F934F935F936F937F938F93D9
:100450009F93AF93BF93EF93FF938AE692E00E943E
:10046000FB00FF91EF91BF91AF919F918F917F9191
:100470006F915F914F913F912F910F900FBE0F9011
:100480001F9018958AE692E00E94BF0021E0892B18
:1004900009F420E0822F0895EAE6F2E01382128246
:1004A00088EE93E0A0E0B0E084839583A683B783D1
:1004B0008EE091E09183808385EC90E0958784873E
:1004C00084EC90E09787868780EC90E0918B808B1E
:1004D00081EC90E0938B828B82EC90E0958B848B07
:1004E00086EC90E0978B868B118E128E138E148E75
:1004F0000895CF92DF92EF92FF920F931F93CF93C5
:10050000DF936C017A018B01C0E0D0E0CE15DF05EE
:1005100089F0D8016D918D01D601ED91FC9101908A
:10052000F081E02DC6010995892B11F47E0102C0EE
:100530002196ECCFC701DF91CF911F910F91FF90D2
:10054000EF90DF90CF9008956115710579F0FB0170
:1005500001900020E9F73197AF01461B570BDC01F2
:10056000ED91FC910280F381E02D099480E090E010
:1005700008950C94A402DC01ED91FC910190F081AE
:10058000E02D09946AE171E00C94A4020F931F938B
:10059000CF93DF93EC010E94A4028C01CE010E9454
:1005A000C202800F911FDF91CF911F910F9108958B
:1005B0004F925F926F927F92EF92FF920F931F93F1
:1005C000CF93DF93CDB7DEB7A1970FB6F894DEBF18
:1005D0000FBECDBF7C01FA01CB0119A2223008F475
:1005E0002AE08E010F5D1F4F422E512C612C712C81
:1005F000BF01A30192010E94F20DF901CA0101504D
:1006000011096A3014F4605D01C0695CD8016C9313
:10061000232B242B252B61F7B801C7010E94A402CC
:10062000A1960FB6F894DEBF0FBECDBFDF91CF917C
:100630001F910F91FF90EF907F906F905F904F9080
:100640000895CF92DF92EF92FF920F931F93CF9373
:10065000DF93EC016A017B012115310579F4E88112
:10066000F9810190F081E02D642FDF91CF911F91EE
:100670000F91FF90EF90DF90CF9009942A303105D1
:10068000E9F477FF1AC06DE20E94BB028C01442797
:100690005527BA014C195D096E097F092AE0CE0180
:1006A0000E94D802800F911FDF91CF911F910F916F
:1006B000FF90EF90DF90CF9008952AE0B701A60158
:1006C000CE01DF91CF911F910F91FF90EF90DF90BE
:1006D000CF900C94D8029A01AB01770F660B770B81
:1006E0000C9421032115310541F4DC01ED91FC91BD
:1006F0000190F081E02D642F09940C94D8029A01A6
:10070000462F50E060E070E00C9472030F931F934B
:10071000CF93DF93EC019A01462F50E060E070E048
:100720000E9472038C01CE010E94C202800F911FB1
:10073000DF91CF911F910F9108951F920F920FB6E5
:100740000F9211242F933F938F939F93AF93BF9357
:100750008091080390910903A0910A03B0910B03C3
:100760003091070323E0230F2D3720F40196A11DBC
:10077000B11D05C026E8230F0296A11DB11D2093CF
:1007800007038093080390930903A0930A03B0938F
:100790000B0380910C0390910D03A0910E03B09177
:1007A0000F030196A11DB11D80930C0390930D03BF
:1007B000A0930E03B0930F03BF91AF919F918F91C0
:1007C0003F912F910F900FBE0F901F9018953FB73C
:1007D000F89480910C0390910D03A0910E03B091B9
:1007E0000F0326B5A89B05C02F3F19F00196A11D48
:1007F000B11D3FBFBA2FA92F982F8827820F911DB7
:10080000A11DB11DBC01CD0142E0660F771F881FFD
:10081000991F4A95D1F708958F929F92AF92BF92F8
:10082000CF92DF92EF92FF926B017C010E94E7036F
:100830004B015C01C114D104E104F10401F10E94F7
:1008400045080E94E703DC01CB0188199909AA0930
:10085000BB09883E9340A105B10560F321E0C21AAF
:10086000D108E108F10888EE880E83E0981EA11CEB
:10087000B11CC114D104E104F10419F7DBCFFF90DE
:10088000EF90DF90CF90BF90AF909F908F900895A2
:10089000789484B5826084BD84B5816084BD85B55B
:1008A000826085BD85B5816085BDEEE6F0E0808122
:1008B00081608083E1E8F0E0108280818260808343
:1008C000808181608083E0E8F0E0808181608083C6
:1008D000E1EBF0E0808184608083E0EBF0E08081F8
:1008E00081608083EAE7F0E080818460808380819A
:1008F0008260808380818160808380818068808342
:100900001092C10008950F931F93CF93DF93EC01D2
:10091000198218821B821A821C821D821E821F82EB
:10092000188619861A861B866BE271E08AE692E0C9
:100930000E94C6028AE090E00E9446088C010E9454
:100940009D0B198308838CE290E00E9446088C017D
:100950000E9472061B830A83DF91CF911F910F9132
:100960000895CF93DF93EC01888199810E94480814
:100970008A819B81DF91CF910C944808CF93DF93BC
:10098000EC018A819B810E94BC0788819981DF915B
:10099000CF910C94DF0C2F923F924F925F926F9207
:1009A0007F928F929F92AF92BF92CF92DF92EF92FF
:1009B000FF920F931F93CF93DF93EC018A819B816A
:1009C0000E94AE068C018A819B810E94B2064C0176
:1009D000B801110F880B990B1F921F9222E02F93E1
:1009E0001F92A12CB12C65011CE2E12EFF24F3948F
:1009F00000E010E02FE73FEF4FEF5FEF0E940408A9
:100A00002B013C011B01B401990C880B990B1F921F
:100A10001F9222E02F931F9218E5E12EF12C00E0A7
:100A200010E027E83FEF4FEF5FEF0E9404088DB71B
:100A30009EB708960FB6F8949EBF0FBE8DBF6F3F4E
:100A4000710519F014F06FEF70E08B0161307F4F8A
:100A500014F401E01FEF20163106D4F0B20157FE66
:100A600004C06627772764197509072E000C880BC8
:100A7000990B0E94F80E4B015C016C837D838E8381
:100A80009F83C80117FF1DC091958195910919C0D9
:100A9000B80117FF03C0719561957109072E000C0D
:100AA000880B990B0E94F80E4B015C016C837D83CF
:100AB0008E839F83C20157FE04C08827992784191B
:100AC0009509BC01990F880B990B0E94F80E9B01A8
:100AD000AC01C501B4010E94530E688779878A87EB
:100AE0009B87DF91CF911F910F91FF90EF90DF9047
:100AF000CF90BF90AF909F908F907F906F905F90BE
:100B00004F903F902F900895EF92FF920F931F9375
:100B1000CF93DF93EC018A819B810E94AE067C011A
:100B20008A819B810E94B2060881198101151105F5
:100B300009F4BBC02BEFE2162FEFF206BCF48B3F9B
:100B40002FEF92079CF56C817D818E819F810E94A1
:100B5000C00E23E531E0AB0161E070E0C8010E9406
:100B60006C0C688579858A859B851AC026E0E2161B
:100B7000F104F4F18B3F2FEF920704F56885798536
:100B80008A859B850E94C00E23E531E0AB0161E0C0
:100B900070E0C8010E946C0C6C817D818E819F8108
:100BA0000E94C00E23E531E0AB0173C08630910591
:100BB000A4F1688579858A859B8547C08630910533
:100BC000F4F06C817D818E819F810E94C00E2CE5A6
:100BD00031E0AB0161E070E0C8010E946C0C6885F7
:100BE00079858A859B850E94C00E2CE531E0DCCF9B
:100BF00086309105E4F48B3F2FEF9207C4F025E097
:100C0000E216F10454F06C817D818E819F810E94F7
:100C1000C00E2CE531E0AB0133C02CEFE2162FEF14
:100C2000F2062CF424E631E040E050E013C025E069
:100C3000E20EF11C2BE0E216F104F0F48530910590
:100C40009CF06C817D818E819F810E94C00E2CE57D
:100C500031E0AB0161E070E0C8010E946C0C6C8176
:100C60007D818E819F81BFCF8C3F9F4F2CF46C8103
:100C70007D818E819F8186CF24E631E040E050E087
:100C800061E070E0C8010E946C0C24E631E040E0B5
:100C900050E062E070E088819981DF91CF911F91EF
:100CA0000F91FF90EF900C946C0CDF91CF911F91FE
:100CB0000F91FF90EF900895CF93DF93EC018A811D
:100CC0009B810E94F506CE010E94CB04CE01DF91EC
:100CD000CF910C948405DC01ED91FC910190F081A1
:100CE000E02D0994FC01118210821582148281E0AA
:100CF00090E0918780879387828715861486178670
:100D00001686168A178A108E118E128E138E148EE6
:100D1000158E168E178E10A211A210A611A612A65D
:100D200013A6118A108A138A128A158A148A12A2AB
:100D300013A214A215A216A217A2089562E570E0EC
:100D400080E193E00E94F90860E070E080E193E0C8
:100D50000E946B0680E193E00C947509FC0182818E
:100D600093810895FC01868197810895CF93DF9345
:100D7000EC016CE671E08AE692E00E94C6026A81AC
:100D80007B814AE050E08AE692E00E946B0367E9CB
:100D900071E08AE692E00E94B9026E817F814AE0AA
:100DA00050E08AE692E00E946B0367E971E08AE610
:100DB00092E00E94B90269E971E08AE692E00E943D
:100DC000B90268A570E04AE050E08AE692E00E942D
:100DD0006B0367E971E08AE692E00E94B9028AE655
:100DE00092E0DF91CF910C94C202BF92CF92DF923A
:100DF000EF92FF920F931F93CF93DF93EC0146E0A6
:100E000050E062E570E080E193E00E9472096E01BB
:100E100042E2C40ED11CE12CF12C87E1B82E80E116
:100E200093E00E944A08892B69F080E193E00E94D8
:100E300052088B25895EF60181936F01FFEFEF1A4F
:100E4000FF0AEDCF45E0E416F1040CF45DC088A57F
:100E50008AA789A58BA788819981998788878C81A2
:100E60009D819B878A878AA190E0998388838BA143
:100E700090E09D838C832FA1822F837090E03CA112
:100E8000AC0164E0369F400D511D1124598B488BF5
:100E90003DA1AC01E4E03E9F400D511D11245B8B50
:100EA0004A8B3EA1F4E03F9F800D911D11249D8B44
:100EB0008C8B822F8095817088A721FB002700F9F9
:100EC00010E041E00427017009A7CE010E949E06B0
:100ED000888199812C853D85821B930B9B838A8316
:100EE0008C819D812E853F85821B930B9F838E83F2
:100EF000CE01DF91CF911F910F91FF90EF90DF9086
:100F0000CF90BF900C94B606DF91CF911F910F91B7
:100F1000FF90EF90DF90CF90BF900895CF93DF9335
:100F2000EC010E94F506888199819D878C878C81D0
:100F30009D819F878E876CA170E080E090E00E9489
:100F4000F60E6E8B7F8B888F998F6DA170E080E09D
:100F500090E00E94F60E6A8F7B8F8C8F9D8F6EA122
:100F600070E080E090E00E94F60E6E8F7F8F88A385
:100F700099A3DF91CF910895CF93DF93EC0180E1A6
:100F800093E00E94E50862E570E080E193E00E9452
:100F9000F90860EF70E080E193E00E946B0665E580
:100FA00070E080E193E00E946B0680E193E00E9494
:100FB000750962E570E080E193E00E94F9086BEF4B
:100FC00070E080E193E00E946B0660E070E080E1F9
:100FD00093E00E946B0680E193E00E9475092885EA
:100FE00039858C859D852817390759F02A853B85D9
:100FF0008E859F852817390721F0CE010E948E0724
:10100000EECFDF91CF9108954F925F926F927F92D2
:10101000AF92BF92CF92DF92EF92FF920F931F9306
:10102000CF93DF93CDB7DEB729013A019B01AC0125
:10103000241935094609570989899A89AB89BC89D8
:10104000BC01CD016A197B098C099D090E94E20D42
:10105000A801970124193509460957090E94140E61
:10106000CA01B9016A0D7B1D8C1D9D1DDF91CF91B9
:101070001F910F91FF90EF90DF90CF90BF90AF90B6
:101080007F906F905F904F90089508950C94840F17
:101090000C9419108091400390E020914103821B31
:1010A000910908959091410380914003981750F45D
:1010B000E92FF0E0EE5BFC4F208130E09F5F9093E2
:1010C000410302C02FEF3FEFC9010895E0914103B2
:1010D00080914003E81730F4F0E0EE5BFC4F808134
:1010E00090E008958FEF9FEF08950895CF92DF92DB
:1010F000EF92FF920F931F93CF93DF937C01262FE4
:10110000972F8A0180911C03882391F0C62FD72F37
:101110006E01C40ED51ECC15DD0571F06991D701A5
:10112000ED91FC910190F081E02DC7010995F3CF7D
:10113000642F822F0E94380AC801DF91CF911F913E
:101140000F91FF90EF90DF90CF900895CF93DF93B2
:101150001F92CDB7DEB7698320911C032223D1F003
:1011600020911D03203240F021E030E0FC01338368
:10117000228380E090E015C080911E03E82FF0E00C
:10118000E15EFC4F998190838F5F80931E03809373
:101190001D0305C061E0CE0101960E94380A81E07E
:1011A00090E00F90DF91CF910895FC01138212829D
:1011B00088EE93E0A0E0B0E084839583A683B783B4
:1011C00089EA91E0918380830895109241031092FF
:1011D000400310921E0310921D030C947C0981E0C1
:1011E00080931C0360933F0310921E0310921D0313
:1011F00008950C94EF080F93062F21E040911D03F2
:101200006FE173E080913F030E94E20910921E0398
:1012100010921D0310921C030F9108954F925F923C
:101220006F927F92AF92BF92CF92EF92FF920F9305
:101230001F93CF93DF935C01F62ED42F2801390141
:10124000EE2021F10E94EF08CE2DC43008F0C3E05B
:10125000C150C0F0D501ED91FC91B8E0CB9FC00129
:101260001124A301920104C05695479537952795FF
:101270008A95D2F7CA01B9010190F081E02DC5012C
:101280000995E6CF60E0C5010E94FB084D2FD132E1
:1012900008F040E22C2D62E473E08F2D0E949A0941
:1012A0001092410380934003DF91CF911F910F91E2
:1012B000FF90EF90CF90BF90AF907F906F905F9036
:1012C0004F900895CF92EF920F931F93C22EE12C6F
:1012D00000E010E098010E940E091F910F91EF901D
:1012E000CF90089521E00C94620961E00C94FB0812
:1012F00080E193E00C94D5081092CF0381E08093B5
:10130000CD031092CC0361E082E10E94B20D61E056
:1013100083E10E94B20DE9EBF0E080818E7F808353
:1013200080818D7F808388E48093B80085E48093FA
:10133000BC000895413208F043C09091CF03911151
:10134000FCCF91E09093CF032093CD032FEF209318
:1013500062031092A703240F2093A6039093CE0359
:101360009091CE03880F892B8093CE038091CC037C
:10137000813061F41092CC038091CE038093BB0046
:101380008091BC0083FDF8CF85EC01C085EE809391
:10139000BC008091CF038130E1F38091A7038417D3
:1013A00010F44091A70328EA33E0FB01D9018A2F0A
:1013B000821B841718F48D918193F9CF842F08959F
:1013C00080E008950F93413208F04AC09091CF0316
:1013D0009111FCCF32E03093CF030093CD033FEF68
:1013E000309362031092A7034093A603FB0168EABF
:1013F00073E0DB013A2F361B341718F431913D931B
:10140000F9CF1092CE033091CE03880F832B8093B7
:10141000CE038091CC03813061F41092CC03809193
:10142000CE038093BB008091BC0083FDF8CF85EC98
:1014300001C085EE8093BC00222321F08091CF0370
:101440008230D1F3809162038F3F79F08091620303
:10145000803241F080916203803331F094E005C026
:1014600091E003C092E001C093E0892F0F910895AD
:1014700040918403262F30E0240F311D21323105A5
:10148000DCF42091CF032430C9F4FC0180E090E02B
:10149000861758F4309184032191DC01AA57BC4F80
:1014A000A30FB11D2C930196F3CF80918403680F95
:1014B0006093840380E0089581E0089582E00895B8
:1014C00085ED8093BC008091BC0084FDFCCF109220
:1014D000CF03089585EC8093BC001092CF0308954C
:1014E0001F920F920FB60F9211242F933F934F9399
:1014F0005F936F937F938F939F93AF93BF93EF937C
:10150000FF938091B900887F803609F49EC078F5FA
:10151000883209F45DC090F4803109F456C038F483
:10152000882309F4F5C0883009F44FC0F5C088312C
:1015300009F44EC0803209F45FC0EEC0803409F473
:101540006AC058F4803309F457C0883309F0E4C006
:10155000809362030E946A0ADFC0803509F44FC09D
:10156000883509F45DC0883409F0D6C0D3C0883905
:1015700009F4C4C0A8F4883709F467C038F4883681
:1015800009F463C0803709F460C0C6C0883809F424
:10159000B5C0803909F45FC0803809F0BDC05BC0B8
:1015A000803B09F483C038F4803A09F466C0883A75
:1015B00009F47CC0B1C0803C09F4A4C0883C09F4A3
:1015C000A1C0883B09F487C0A7C08091CE0310C09A
:1015D0009091A7038091A603981770F5E091A70357
:1015E00081E08E0F8093A703F0E0E855FC4F8081E7
:1015F0008093BB0085EC83C0809362038BC0E09135
:10160000A70381E08E0F8093A7038091BB00F0E0D9
:10161000E855FC4F80839091A7038091A6036BC08F
:10162000E091A70381E08E0F8093A7038091BB0018
:10163000F0E0E855FC4F80838091CD0381116AC0B2
:1016400081E08093CC0384EA5EC083E08093CF0383
:1016500010926303CFCF80916303803208F04EC0B5
:10166000E091630381E08E0F809363038091BB0060
:10167000F0E0EC59FC4F8083BDCF0E946A0A809154
:101680006303803230F4E0916303F0E0EC59FC4FE7
:1016900010826091630370E0E091C803F091C90388
:1016A00084E693E009951092630336C084E080934A
:1016B000CF031092850310928403E091CA03F09146
:1016C000CB03099580918403811105C081E080934B
:1016D000840310928603E091850381E08E0F80934E
:1016E0008503F0E0EA57FC4F80818093BB00909126
:1016F000850380918403981708F47CCF85E8809354
:10170000BC000AC085EC8093BC001092CF0304C0DB
:10171000109262030E94600AFF91EF91BF91AF9116
:101720009F918F917F916F915F914F913F912F91F9
:101730000F900FBE0F901F901895FC011482158218
:10174000168217821086118665EB71E08AE692E0B8
:101750000C94C602CF93DF93EC0182E08E8384E089
:101760008F8387E0888788E0898761E082E00E9434
:10177000760D61E08F810E94760D61E088850E9480
:10178000760D61E08985DF91CF910C94760DCF9332
:10179000DF93EC016AED71E08AE692E00E94C602F6
:1017A0006DE072E08AE692E00E94B9026881798178
:1017B0004AE050E08AE692E00E946B0367E172E043
:1017C0008AE692E00E94B9026A817B814AE050E099
:1017D0008AE692E00E946B0369E172E08AE692E099
:1017E0000E94B90268E971E08AE692E00E94C602AE
:1017F0006BE172E08AE692E00E94C60265E272E066
:101800008AE692E00E94B9024AE050E06C818AE6E2
:1018100092E00E94860362E372E08AE692E00E9410
:10182000B9024AE050E06E818AE692E00E947F03AE
:1018300067E172E08AE692E00E94B9024AE050E075
:101840006F818AE692E00E947F0369E172E08AE696
:1018500092E00E94B90268E971E08AE692E00E9493
:10186000C60260E472E08AE692E00E94C60265E287
:1018700072E08AE692E00E94B9024AE050E06D818F
:101880008AE692E00E947F036AE472E08AE692E0D0
:101890000E94B9024AE050E068858AE692E00E9420
:1018A0007F0367E172E08AE692E00E94B9024AE0B3
:1018B00050E069858AE692E00E947F0369E172E068
:1018C0008AE692E00E94B90268E971E08AE692E055
:1018D000DF91CF910C94C602CF92DF92EF92FF92EC
:1018E0000F931F93CF93DF93EC016B017A01890172
:1018F0000E94C70B6CE571E0C8010E94B110892BF2
:1019000059F463E571E0C8010E94B11061E0892BD0
:1019100009F460E010E002C011E060E081E0C81668
:10192000D10471F082E0C816D104E9F488850E94E0
:10193000B20D612F89850E94B20DB7018D8109C05A
:101940008E810E94B20D612F8F810E94B20DB7016E
:101950008C81DF91CF911F910F91FF90EF90DF90DD
:10196000CF900C94EE0CDF91CF911F910F91FF90CF
:10197000EF90DF90CF900895CF93DF93EC0183E059
:101980008C8385E08D8361E083E00E94760D61E0C9
:101990008D810E94760D24E631E040E050E061E068
:1019A00070E0CE010E946C0C24E631E040E050E093
:1019B00062E070E0CE01DF91CF910C946C0CCF937C
:1019C000DF93EC010E94BC0CCE010E94AA0B19828D
:1019D00018821B821A82DF91CF9108951F93CF93B3
:1019E000DF93182FEB0161E00E94760D209711F430
:1019F00060E004C0CF3FD10539F461E0812FDF9171
:101A0000CF911F910C94B20DE12FF0E0E859FF4FF8
:101A1000E491E330F9F048F4E130B9F0E230A1F5B7
:101A200084B5806284BDC8BD34C0E730E9F0E830D9
:101A300019F1E43049F58091800080628093800044
:101A4000D0938B00C0938A0024C084B5806884BD85
:101A5000C7BD1FC080918000806880938000D093B4
:101A60008900C093880015C08091B0008068809381
:101A7000B000C093B3000DC08091B000806280932D
:101A8000B000C093B40005C0C038D1050CF0B5CF8C
:101A9000AFCFDF91CF911F910895833081F028F46B
:101AA000813099F08230A1F008958730A9F0883014
:101AB000B9F08430D1F4809180008F7D03C0809193
:101AC00080008F7780938000089584B58F7702C05F
:101AD00084B58F7D84BD08958091B0008F7703C059
:101AE0008091B0008F7D8093B0000895CF93DF93F5
:101AF00090E0FC01E458FF4F2491FC01E057FF4FB8
:101B00008491882361F190E0880F991FFC01E255D0
:101B1000FF4FC591D491FC01EC55FF4FA591B491B5
:101B2000611109C09FB7F89488812095822388832A
:101B3000EC912E230BC0623061F49FB7F89438818A
:101B4000822F809583238883EC912E2B2C939FBF2B
:101B500006C08FB7F894E8812E2B28838FBFDF91C2
:101B6000CF9108951F93CF93DF93282F30E0F90191
:101B7000E859FF4F8491F901E458FF4FD491F901DE
:101B8000E057FF4FC491CC23C9F0162F81110E945A
:101B90004D0DEC2FF0E0EE0FFF1FEC55FF4FA59120
:101BA000B4918FB7F894111105C09C91ED2FE09579
:101BB000E92302C0EC91ED2BEC938FBFDF91CF9125
:101BC0001F910895DB018F939F930E94330EBF9165
:101BD000AF91A29F800D911DA39F900DB29F900D7C
:101BE00011240895A1E21A2EAA1BBB1BFD010DC0F2
:101BF000AA1FBB1FEE1FFF1FA217B307E407F507BD
:101C000020F0A21BB30BE40BF50B661F771F881F98
:101C1000991F1A9469F760957095809590959B012E
:101C2000AC01BD01CF010895052E97FB1EF4009471
:101C30000E942B0E57FD07D00E94F20D07FC03D027
:101C40004EF40C942B0E50954095309521953F4FB6
:101C50004F4F5F4F089590958095709561957F4F98
:101C60008F4F9F4F08950E94440EA59F900DB49FE3
:101C7000900DA49F800D911D11240895EE0FFF1F5C
:101C80000590F491E02D0994A29FB001B39FC0018B
:101C9000A39F700D811D1124911DB29F700D811D98
:101CA0001124911D08955058BB27AA270E946B0E3E
:101CB0000C944A0F0E943C0F38F00E94430F20F012
:101CC00039F49F3F19F426F40C94390F0EF4E09583
:101CD000E7FB0C94330FE92F0E945B0F58F3BA1700
:101CE000620773078407950720F079F4A6F50C9432
:101CF0007D0F0EF4E0950B2EBA2FA02D0B01B9012C
:101D000090010C01CA01A0011124FF27591B99F071
:101D1000593F50F4503E68F11A16F040A22F232F7D
:101D2000342F4427585FF3CF469537952795A795CD
:101D3000F0405395C9F77EF41F16BA0B620B730B74
:101D4000840BBAF09150A1F0FF0FBB1F661F771FE5
:101D5000881FC2F70EC0BA0F621F731F841F48F49A
:101D6000879577956795B795F7959E3F08F0B0CF23
:101D70009395880F08F09927EE0F9795879508950A
:101D80000E94C70E6894B1110C947E0F08950E94B2
:101D9000630F88F09F5798F0B92F9927B751B0F08B
:101DA000E1F0660F771F881F991F1AF0BA95C9F7DF
:101DB00014C0B13091F00E947D0FB1E008950C94F1
:101DC0007D0F672F782F8827B85F39F0B93FCCF3A4
:101DD000869577956795B395D9F73EF4909580955C
:101DE000709561957F4F8F4F9F4F0895E89409C07C
:101DF00097FB3EF490958095709561957F4F8F4F3E
:101E00009F4F9923A9F0F92F96E9BB279395F69553
:101E1000879577956795B795F111F8CFFAF4BB0FD1
:101E200011F460FF1BC06F5F7F4F8F4F9F4F16C035
:101E3000882311F096E911C0772321F09EE8872FBF
:101E4000762F05C0662371F096E8862F70E060E07B
:101E50002AF09A95660F771F881FDAF7880F9695F4
:101E6000879597F9089597F99F6780E870E060E09B
:101E700008959FEF80EC089500240A941616170623
:101E800018060906089500240A941216130614066B
:101E900005060895092E0394000C11F4882352F0CE
:101EA000BB0F40F4BF2B11F460FF04C06F5F7F4F86
:101EB0008F4F9F4F089557FD9058440F551F59F06D
:101EC0005F3F71F04795880F97FB991F61F09F3F27
:101ED00079F087950895121613061406551FF2CF50
:101EE0004695F1DF08C0161617061806991FF1CFA0
:101EF00086957105610508940895E894BB276627C7
:101F00007727CB0197F90895CF93DF93823091051E
:101F100010F482E090E0E091D203F091D30320E04E
:101F200030E0C0E0D0E0309711F140815181481796
:101F30005907C0F04817590761F4828193812097AF
:101F400019F09B838A832BC09093D3038093D20391
:101F500026C02115310519F04217530718F49A01CC
:101F6000BE01DF01EF010280F381E02DDCCF2115FE
:101F7000310509F1281B390B2430310590F41296F4
:101F80008D919C9113976115710521F0FB0193834D
:101F9000828304C09093D3038093D203FD013296D1
:101FA00044C0FD01E20FF31F819391932250310948
:101FB0002D933C933AC02091D0033091D103232B31
:101FC00041F420910201309103013093D103209319
:101FD000D00320910001309101012115310541F418
:101FE0002DB73EB74091040150910501241B350BDC
:101FF000E091D003F091D103E217F307A0F42E1B78
:102000003F0B2817390778F0AC014E5F5F4F24175C
:10201000350748F04E0F5F1F5093D1034093D00314
:102020008193919302C0E0E0F0E0CF01DF91CF9186
:1020300008950F931F93CF93DF93009709F48CC0FB
:10204000FC013297138212820091D2031091D303C4
:102050000115110581F420813181820F931F209198
:10206000D0033091D1032817390779F5F093D103C4
:10207000E093D00371C0D80140E050E0AE17BF0735
:1020800050F412962D913C911397AD012115310515
:1020900009F1D901F3CF9D01DA01338322836081F5
:1020A0007181860F971F8217930769F4EC012881CD
:1020B0003981260F371F2E5F3F4F318320838A815E
:1020C0009B8193838283452B29F4F093D303E09380
:1020D000D20342C01396FC93EE931297ED014991FF
:1020E00059919E01240F351FE217F30771F4808187
:1020F0009181840F951F029611969C938E938281F5
:10210000938113969C938E931297E0E0F0E0D801B0
:1021100012968D919C911397009719F0F8018C01FC
:10212000F6CF8D919C9198012E5F3F4F820F931FA8
:102130002091D0033091D1032817390769F43097E3
:1021400029F41092D3031092D20302C01382128298
:102150001093D1030093D003DF91CF911F910F9182
:102160000895FB01DC018D91019080190110D9F3D4
:10217000990B089510E0CFE5D0E004C0FE010E9465
:0E2180003E0E2196C036D107C9F7F894FFCF66
:10218E000000D403800001000000000000003E01AA
:10219E007902BF00D900CB001C010D0A006E616EE2
:1021AE0000696E66006F7666002E00436F6E737464
:1021BE00727563746F7220496E74657266616365C1
:1021CE0020436F6D6D616E6465202D3E204D6F74E2
:1021DE006F72004241434B5741524400464F525793
:1021EE004152440052454C45415345002A2A2A2A61
:1021FE002A2A2A2A2A2A2A2A204F626A65637420EA
:10220E0057696920436875636B202A2A2A2A2A2A6D
:10221E002A2A2A2A2A2A000900427574746F6E200F
:10222E005A203A200000000000A60876084A0852FC
:10223E00086608750844656661756C7420436F6E98
:10224E007374727563746F72202D3E204D6F746FB0
:10225E00724669726D77617265002A2A2A2A2A2AC5
:10226E002A2A2A2A2A2A2A2A2A204F626A6563746F
:10227E0020496E74657266616365203A202A2A2AA7
:10228E002A2A2A2A2A2A2A2A2A2A2A2A0053706520
:10229E006564203A2028002C0029004D6F746F725F
:1022AE002031203A0050696E456E61626C65203AAD
:1022BE00200050696E436F6E74726F6C732028002D
:1022CE004D6F746F722032203A0050696E436F6EFC
:0A22DE0074726F6C73203A20280020
:00000001FF
