:100000000C9460000C9488000C9488000C94880078
:100010000C9488000C9488000C9488000C94880040
:100020000C9488000C9488000C9488000C94880030
:100030000C9488000C9488000C9488000C94880020
:100040000C949D030C9488000C94EA010C941C02FF
:100050000C9488000C9488000C9488000C94880000
:100060000C94BA0A0C9488000000000800020100F9
:100070000003040700000000000000000102040863
:100080001020408001020408102001020408102002
:10009000040404040404040402020202020203032E
:1000A0000303030300000000250028002B000000CC
:1000B0000000240027002A00B7004C02C209BB0040
:1000C00011241FBECFEFD8E0DEBFCDBF12E0A0E00D
:1000D000B1E0EEEEF0E202C005900D92AE30B10755
:1000E000D9F723E0AEE0B2E001C01D92A838B20714
:1000F000E1F710E0CFE5D0E004C02197FE010E94B7
:10010000830ECC35D107C9F70E94A8000C946A1061
:100110000C940000089526E040E052EC61E070E0AD
:100120008EE192E00E94850164E670E080E090E05C
:100130000E940C048EE092E00C94B8048EE092E0F1
:100140000E94A60664E670E080E090E00C940C0447
:100150000E9448040E948A000E948B00CDEED0E0ED
:100160000E949E002097E1F30E94ED00F9CF8EE0FF
:1001700092E00C9483048EE092E00C94AB04FC01BA
:10018000918D228D892F90E0805C9F4F821B910979
:100190008F7399270895FC01918D828D981731F006
:1001A000828DE80FF11D858D90E008958FEF9FEF10
:1001B0000895FC01918D828D981761F0828DDF0189
:1001C000A80FB11D5D968C91928D9F5F9F73928F4A
:1001D00090E008958FEF9FEF089582E492E0892BDD
:1001E00049F080E090E0892B29F00E9442028111C1
:1001F0000C9400000895FC01848DDF01A80FB11D4F
:10020000A35ABF4F2C91848D90E001968F7399274C
:10021000848FA689B7892C93A089B1898C91806439
:100220008C93938D848D981306C00288F389E02DFA
:1002300080818F7D80830895CF93DF93EC01888D3B
:100240008823C9F0EA89FB89808185FD05C0A889DA
:10025000B9898C9186FD0FC00FB607FCF5CF808160
:1002600085FFF2CFA889B9898C9185FFEDCFCE01AA
:100270000E94FB00E7CFDF91CF910895EF92FF92AC
:100280000F931F93CF93DF93EC0181E0888F9B8DB9
:100290008C8D981305C0E889F989808185FD24C07B
:1002A000F62E0B8D10E00F5F1F4F0F731127E02EFE
:1002B0008C8DE8120CC00FB607FCFACFE889F989DB
:1002C000808185FFF5CFCE010E94FB00F1CF8B8DA1
:1002D000FE01E80FF11DE35AFF4FF0820B8FEA8910
:1002E000FB898081806207C0EE89FF896083E8898D
:1002F000F98980818064808381E090E0DF91CF91F3
:100300001F910F91FF90EF900895CF92DF92EF929F
:10031000FF921F93CF93DF93EC016A017B01122FB1
:10032000E889F98982E080834115514E61057105A4
:10033000B1F060E079E08DE390E0A70196010E94C2
:10034000370EDA01C9010197A109B109B695A79540
:1003500097958795AC01411580E15807A8F0E88989
:10036000F989108260E874E88EE190E0A7019601B7
:100370000E94370EBA01A901415051096109710962
:100380007695679557954795EC85FD855083EE8565
:10039000FF854083188EEC89FD891083EA89FB89EB
:1003A000808180618083EA89FB8980818860808385
:1003B000EA89FB89808180688083EA89FB89808162
:1003C0008F7D8083DF91CF911F91FF90EF90DF9021
:1003D000CF9008951F920F920FB60F9211242F9372
:1003E0008F939F93EF93FF93E0912E02F0912F0252
:1003F0008081E0913402F091350282FD12C090813B
:10040000809137028F5F8F7320913802821751F0ED
:10041000E0913702F0E0E25EFD4F958F8093370266
:1004200001C08081FF91EF919F918F912F910F904B
:100430000FBE0F901F9018951F920F920FB60F923C
:1004400011242F933F934F935F936F937F938F93D9
:100450009F93AF93BF93EF93FF938EE192E00E943F
:10046000FB00FF91EF91BF91AF919F918F917F9191
:100470006F915F914F913F912F910F900FBE0F9011
:100480001F9018958EE192E00E94BF0021E0892B19
:1004900009F420E0822F0895EEE1F2E01382128247
:1004A00088EE93E0A0E0B0E084839583A683B783D1
:1004B0008EE091E09183808385EC90E0958784873E
:1004C00084EC90E09787868780EC90E0918B808B1E
:1004D00081EC90E0938B828B82EC90E0958B848B07
:1004E00086EC90E0978B868B118E128E138E148E75
:1004F0000895CF92DF92EF92FF920F931F93CF93C5
:10050000DF936C017A018B01C0E0D0E0CE15DF05EE
:1005100089F0D8016D918D01D601ED91FC9101908A
:10052000F081E02DC6010995892B11F47E0102C0EE
:100530002196ECCFC701DF91CF911F910F91FF90D2
:10054000EF90DF90CF9008956115710579F0FB0170
:1005500001900020E9F73197AF01461B570BDC01F2
:10056000ED91FC910280F381E02D099480E090E010
:1005700008950C94A402DC01ED91FC910190F081AE
:10058000E02D09946AE171E00C94A4020F931F938B
:10059000CF93DF93EC010E94A4028C01CE010E9454
:1005A000C202800F911FDF91CF911F910F9108958B
:1005B0004F925F926F927F92EF92FF920F931F93F1
:1005C000CF93DF93CDB7DEB7A1970FB6F894DEBF18
:1005D0000FBECDBF7C01FA01CB0119A2223008F475
:1005E0002AE08E010F5D1F4F422E512C612C712C81
:1005F000BF01A30192010E94370EF901CA01015007
:1006000011096A3014F4605D01C0695CD8016C9313
:10061000232B242B252B61F7B801C7010E94A402CC
:10062000A1960FB6F894DEBF0FBECDBFDF91CF917C
:100630001F910F91FF90EF907F906F905F904F9080
:100640000895CF92DF92EF92FF920F931F93CF9373
:10065000DF93EC016A017B012115310579F4E88112
:10066000F9810190F081E02D642FDF91CF911F91EE
:100670000F91FF90EF90DF90CF9009942A303105D1
:10068000E9F477FF1AC06DE20E94BB028C01442797
:100690005527BA014C195D096E097F092AE0CE0180
:1006A0000E94D802800F911FDF91CF911F910F916F
:1006B000FF90EF90DF90CF9008952AE0B701A60158
:1006C000CE01DF91CF911F910F91FF90EF90DF90BE
:1006D000CF900C94D8029A01AB01770F660B770B81
:1006E0000C9421032115310541F4DC01ED91FC91BD
:1006F0000190F081E02D642F09940C94D8029A01A6
:10070000462F50E060E070E00C9472030F931F934B
:10071000CF93DF93EC019A01462F50E060E070E048
:100720000E9472038C01CE010E94C202800F911FB1
:10073000DF91CF911F910F9108951F920F920FB6E5
:100740000F9211242F933F938F939F93AF93BF9357
:100750008091BC029091BD02A091BE02B091BF02F7
:100760003091BB0223E0230F2D3720F40196A11D09
:10077000B11D05C026E8230F0296A11DB11D2093CF
:10078000BB028093BC029093BD02A093BE02B093C3
:10079000BF028091C0029091C102A091C202B091AB
:1007A000C3020196A11DB11D8093C0029093C102A6
:1007B000A093C202B093C302BF91AF919F918F915A
:1007C0003F912F910F900FBE0F901F9018953FB73C
:1007D000F8948091C0029091C102A091C202B091A0
:1007E000C30226B5A89B05C02F3F19F00196A11D95
:1007F000B11D3FBFBA2FA92F982F8827820F911DB7
:10080000A11DB11DBC01CD0142E0660F771F881FFD
:10081000991F4A95D1F708958F929F92AF92BF92F8
:10082000CF92DF92EF92FF926B017C010E94E7036F
:100830004B015C01C114D104E104F10401F10E94F7
:100840008F080E94E703DC01CB0188199909AA09E6
:10085000BB09883E9340A105B10560F321E0C21AAF
:10086000D108E108F10888EE880E83E0981EA11CEB
:10087000B11CC114D104E104F10419F7DBCFFF90DE
:10088000EF90DF90CF90BF90AF909F908F900895A2
:10089000789484B5826084BD84B5816084BD85B55B
:1008A000826085BD85B5816085BDEEE6F0E0808122
:1008B00081608083E1E8F0E0108280818260808343
:1008C000808181608083E0E8F0E0808181608083C6
:1008D000E1EBF0E0808184608083E0EBF0E08081F8
:1008E00081608083EAE7F0E080818460808380819A
:1008F0008260808380818160808380818068808342
:100900001092C10008950F931F93CF93DF93EC01D2
:10091000198218821B821A821C821D821E821F82EB
:10092000188619861A861B868AE090E00E94900835
:100930008C010E94E70B198308838CE290E00E94EF
:1009400090088C010E94BC061B830A83DF91CF9123
:100950001F910F910895CF93DF93EC0188819981C6
:100960000E9492088A819B81DF91CF910C9492081A
:10097000CF93DF93EC018A819B810E9406088881D6
:100980009981DF91CF910C94240D7F928F929F9249
:10099000AF92BF92CF92DF92EF92FF920F931F938D
:1009A000CF93DF934B01EA01FB0160817181072E38
:1009B000000C880B990B1F921F9222E0722E7F92DF
:1009C0001F92A12CB12C65011CE2E12EFF24F394AF
:1009D00000E010E02FE73FEF4FEF5FEF0E944E087F
:1009E000F4017183608368817981072E000C880B84
:1009F000990B1F921F927F921F9218E5E12EF12C06
:100A000000E010E027E83FEF4FEF5FEF0E944E0855
:100A100079836883F401808191812DB73EB7285F87
:100A20003F4F0FB6F8943EBF0FBE2DBF8F3F9105CD
:100A300019F014F08FEF90E081303FEF930714F43A
:100A400081E09FEFF40191838083888199818F3FBA
:100A5000910519F014F08FEF90E08130FFEF9F07C0
:100A600014F481E09FEF99838883DF91CF911F91E8
:100A70000F91FF90EF90DF90CF90BF90AF909F903D
:100A80008F907F900895CF92DF92EF92FF920F9315
:100A90001F93CF93DF9300D000D0CDB7DEB78C018A
:100AA000FC01828193810E94F8069C838B83F8016C
:100AB000828193810E94FC069A838983AE014F5FF5
:100AC0005F4FBE016D5F7F4FC8010E94C504CB80A0
:100AD000DC80E980FA80CE14DF049CF0B601D7FEFA
:100AE00003C0719561957109072E000C880B990B55
:100AF0000E94D00EF8016483758386839783B701C3
:100B000012C0B701F7FE03C0719561957109072EF8
:100B1000000C880B990B0E94D00EF801648375833A
:100B200086839783B60177FF03C07195619571093C
:100B3000072E000C880B990B0E94D00EF8016087DD
:100B40007187828793870F900F900F900F90DF919E
:100B5000CF911F910F91FF90EF90DF90CF9008956C
:100B6000EF92FF920F931F93CF93DF93EC018A8153
:100B70009B810E94F8068C018A819B810E94FC0661
:100B8000E880F980E114F10409F4D9C00B3F2FEF9C
:100B90001207BCF48B3F2FEF92079CF56C817D818F
:100BA0008E819F810E94980E2BE231E0AB0161E0C3
:100BB00070E0C7010E94B10C688579858A859B85A4
:100BC0001AC0063011050CF447C08B3F2FEF920777
:100BD0004CF5688579858A859B850E94980E2BE265
:100BE00031E0AB0161E070E0C7010E94B10C6C81A3
:100BF0007D818E819F810E94980E2BE231E0AB01B6
:100C000092C0863091050CF442C0688579858A854A
:100C10009B850E94980E24E331E0AB0161E070E017
:100C2000C70159C086309105F4F06C817D818E81B9
:100C30009F810E94980E24E331E0AB0161E070E0F7
:100C4000C7010E94B10C688579858A859B850E94C1
:100C5000980E24E331E0D3CF8630910524F58B3F05
:100C60002FEF920704F1053011058CF0CE010E94A0
:100C700043056C817D818E819F810E94980E24E3C3
:100C800031E0AB0161E070E08881998146C00C3FA2
:100C90002FEF120744F4CE010E9443052CE331E00C
:100CA00040E050E014C00B5F1F4F0B30110570F592
:100CB00085309105BCF0CE010E9443056C817D8199
:100CC0008E819F810E94980E24E331E0AB0161E0A8
:100CD00070E0888199810E94B10C6C817D818E8148
:100CE0009F81B5CF8C3F9F4F8CF4CE010E9443056E
:100CF0006C817D818E819F810E94980E2BE231E074
:100D0000AB0161E070E0888199816FCF2CE331E025
:100D100040E050E061E070E0C7010E94B10C2CE3BC
:100D200031E040E050E062E070E088819981DF913D
:100D3000CF911F910F91FF90EF900C94B10CDF9128
:100D4000CF911F910F91FF90EF900895CF93DF9374
:100D5000EC018A819B810E943F07CE010E944305DE
:100D6000CE01DF91CF910C94B005DC01ED91FC91A7
:100D70000190F081E02D0994FC011182108215820E
:100D8000148281E090E0918780879387828715861F
:100D9000148617861686168A178A108E118E128E62
:100DA000138E148E158E168E178E10A211A210A6F9
:100DB00011A612A613A6118A108A138A128A158AFE
:100DC000148A12A213A214A215A216A217A20895A1
:100DD00062E570E084EC92E00E94430960E070E01C
:100DE00084EC92E00E94B50684EC92E00C94BF097A
:100DF000FC01828193810895FC0186819781089589
:100E0000CF93DF93EC0164E471E08EE192E00E9405
:100E1000C6026A817B814AE050E08EE192E00E9446
:100E20006B036FE671E08EE192E00E94B9026E8181
:100E30007F814AE050E08EE192E00E946B036FE612
:100E400071E08EE192E00E94B90261E771E08EE10B
:100E500092E00E94B90268A570E04AE050E08EE19D
:100E600092E00E946B036FE671E08EE192E00E94D7
:100E7000B9028EE192E0DF91CF910C94C202BF9251
:100E8000CF92DF92EF92FF920F931F93CF93DF9356
:100E9000EC0146E050E062E570E084EC92E00E94F4
:100EA000BC096E0142E2C40ED11CE12CF12C87E199
:100EB000B82E84EC92E00E949408892B69F084ECAF
:100EC00092E00E949C088B25895EF60181936F0158
:100ED000FFEFEF1AFF0AEDCF45E0E416F1040CF442
:100EE0005DC088A58AA789A58BA7888199819987E4
:100EF00088878C819D819B878A878AA190E09983CE
:100F000088838BA190E09D838C832FA1822F837097
:100F100090E03CA1AC0164E0369F400D511D1124CE
:100F2000598B488B3DA1AC01E4E03E9F400D511D23
:100F300011245B8B4A8B3EA1F4E03F9F800D911DF5
:100F400011249D8B8C8B822F8095817088A721FB2B
:100F5000002700F910E041E00427017009A7CE0145
:100F60000E94E806888199812C853D85821B930B20
:100F70009B838A838C819D812E853F85821B930B69
:100F80009F838E83CE01DF91CF911F910F91FF90B0
:100F9000EF90DF90CF90BF900C940007DF91CF913E
:100FA0001F910F91FF90EF90DF90CF90BF90089529
:100FB000CF93DF93EC010E943F07888199819D8741
:100FC0008C878C819D819F878E876CA170E080E0EB
:100FD00090E00E94CE0E6E8B7F8B888F998F6DA1D3
:100FE00070E080E090E00E94CE0E6A8F7B8F8C8F45
:100FF0009D8F6EA170E080E090E00E94CE0E6E8F1B
:101000007F8F88A399A3DF91CF910895CF93DF932A
:10101000EC0184EC92E00E942F0962E570E084EC20
:1010200092E00E94430960EF70E084EC92E00E943D
:10103000B50665E570E084EC92E00E94B50684ECAC
:1010400092E00E94BF0962E570E084EC92E00E94A9
:1010500043096BEF70E084EC92E00E94B50660E01B
:1010600070E084EC92E00E94B50684EC92E00E946D
:10107000BF09288539858C859D852817390759F042
:101080002A853B858E859F852817390721F0CE015B
:101090000E94D807EECFDF91CF9108954F925F92D3
:1010A0006F927F92AF92BF92CF92DF92EF92FF92B8
:1010B0000F931F93CF93DF93CDB7DEB729013A018A
:1010C0009B01AC01241935094609570989899A8978
:1010D000AB89BC89BC01CD016A197B098C099D09CA
:1010E0000E94270EA80197012419350946095709BE
:1010F0000E94590ECA01B9016A0D7B1D8C1D9D1DF0
:10110000DF91CF911F910F91FF90EF90DF90CF90E3
:10111000BF90AF907F906F905F904F90089508952B
:101120000C94340F0C94C90F8091F40290E020913C
:10113000F502821B910908959091F5028091F402C5
:10114000981750F4E92FF0E0EA50FD4F208130E08D
:101150009F5F9093F50202C02FEF3FEFC901089502
:10116000E091F5028091F402E81730F4F0E0EA50E3
:10117000FD4F808190E008958FEF9FEF08950895CF
:10118000CF92DF92EF92FF920F931F93CF93DF9353
:101190007C01262F972F8A018091D002882391F01D
:1011A000C62FD72F6E01C40ED51ECC15DD0571F0EC
:1011B0006991D701ED91FC910190F081E02DC7017B
:1011C0000995F3CF642F822F0E94820AC801DF9114
:1011D000CF911F910F91FF90EF90DF90CF900895E6
:1011E000CF93DF931F92CDB7DEB769832091D002F2
:1011F0002223D1F02091D102203240F021E030E0D2
:10120000FC013383228380E090E015C08091D202FC
:10121000E82FF0E0ED52FD4F998190838F5F80932E
:10122000D2028093D10205C061E0CE0101960E94F6
:10123000820A81E090E00F90DF91CF910895FC0148
:101240001382128288EE93E0A0E0B0E0848395835D
:10125000A683B78381E891E09183808308951092FB
:10126000F5021092F4021092D2021092D1020C9464
:10127000C60981E08093D0026093F3021092D202FB
:101280001092D10208950C9439090F93062F21E092
:101290004091D10263ED72E08091F3020E942C0A2A
:1012A0001092D2021092D1021092D0020F910895A2
:1012B0004F925F926F927F92AF92BF92CF92EF92D6
:1012C000FF920F931F93CF93DF935C01F62ED42FE1
:1012D00028013901EE2021F10E943909CE2DC430B8
:1012E00008F0C3E0C150C0F0D501ED91FC91B8E029
:1012F000CB9FC0011124A301920104C056954795CC
:10130000379527958A95D2F7CA01B9010190F081E6
:10131000E02DC5010995E6CF60E0C5010E944509B1
:101320004D2FD13208F040E22C2D66EF72E08F2D68
:101330000E94E4091092F5028093F402DF91CF91AC
:101340001F910F91FF90EF90CF90BF90AF907F9043
:101350006F905F904F900895CF92EF920F931F93ED
:10136000C22EE12C00E010E098010E9458091F9164
:101370000F91EF90CF90089521E00C94AC0961E0BB
:101380000C94450984EC92E00C941F09109283039D
:1013900081E0809381031092800361E082E10E94EA
:1013A000F70D61E083E10E94F70DE9EBF0E0808149
:1013B0008E7F808380818D7F808388E48093B800D6
:1013C00085E48093BC000895413208F043C09091B9
:1013D00083039111FCCF91E09093830320938103C9
:1013E0002FEF2093160310925B03240F20935A03D0
:1013F0009093820390918203880F892B80938203BC
:1014000080918003813061F4109280038091820387
:101410008093BB008091BC0083FDF8CF85EC01C0B8
:1014200085EE8093BC00809183038130E1F380914D
:101430005B03841710F440915B032CE533E0FB0160
:10144000D9018A2F821B841718F48D918193F9CFCB
:10145000842F089580E008950F93413208F04AC028
:10146000909183039111FCCF32E03093830300937A
:1014700081033FEF3093160310925B0340935A03AE
:10148000FB016CE573E0DB013A2F361B341718F4CF
:1014900031913D93F9CF1092820330918203880FEE
:1014A000832B8093820380918003813061F41092BA
:1014B0008003809182038093BB008091BC0083FDF8
:1014C000F8CF85EC01C085EE8093BC00222321F08B
:1014D000809183038230D1F3809116038F3F79F09E
:1014E00080911603803241F080911603803331F0F1
:1014F00094E005C091E003C092E001C093E0892F21
:101500000F91089540913803262F30E0240F311DAC
:1015100021323105DCF4209183032430C9F4FC012D
:1015200080E090E0861758F4309138032191DC0177
:10153000A65CBC4FA30FB11D2C930196F3CF8091F5
:101540003803680F6093380380E0089581E00895C0
:1015500082E0089585ED8093BC008091BC0084FDFD
:10156000FCCF10928303089585EC8093BC00109209
:10157000830308951F920F920FB60F9211242F9399
:101580003F934F935F936F937F938F939F93AF930B
:10159000BF93EF93FF938091B900887F803609F461
:1015A0009EC078F5883209F45DC090F4803109F46A
:1015B00056C038F4882309F4F5C0883009F44FC0C8
:1015C000F5C0883109F44EC0803209F45FC0EEC026
:1015D000803409F46AC058F4803309F457C0883362
:1015E00009F0E4C0809316030E94B40ADFC080357E
:1015F00009F44FC0883509F45DC0883409F0D6C0BD
:10160000D3C0883909F4C4C0A8F4883709F467C086
:1016100038F4883609F463C0803709F460C0C6C066
:10162000883809F4B5C0803909F45FC0803809F002
:10163000BDC05BC0803B09F483C038F4803A09F434
:1016400066C0883A09F47CC0B1C0803C09F4A4C0EB
:10165000883C09F4A1C0883B09F487C0A7C08091E9
:10166000820310C090915B0380915A03981770F524
:10167000E0915B0381E08E0F80935B03F0E0E45A1E
:10168000FC4F80818093BB0085EC83C08093160360
:101690008BC0E0915B0381E08E0F80935B038091B0
:1016A000BB00F0E0E45AFC4F808390915B03809193
:1016B0005A036BC0E0915B0381E08E0F80935B0364
:1016C0008091BB00F0E0E45AFC4F8083809181035D
:1016D00081116AC081E08093800384EA5EC083E068
:1016E0008093830310921703CFCF8091170380322A
:1016F00008F04EC0E091170381E08E0F809317032E
:101700008091BB00F0E0E85EFC4F8083BDCF0E947B
:10171000B40A80911703803230F4E0911703F0E0AF
:10172000E85EFC4F10826091170370E0E0917C034B
:10173000F0917D0388E193E009951092170336C07C
:1017400084E0809383031092390310923803E09170
:101750007E03F0917F03099580913803811105C0C4
:1017600081E08093380310923A03E091390381E0DD
:101770008E0F80933903F0E0E65CFC4F808180930C
:10178000BB009091390380913803981708F47CCFFF
:1017900085E88093BC000AC085EC8093BC00109261
:1017A000830304C0109216030E94AA0AFF91EF91CE
:1017B000BF91AF919F918F917F916F915F914F9169
:1017C0003F912F910F900FBE0F901F901895FC0125
:1017D0001482158216821782108611860895CF937F
:1017E000DF93EC0182E08E8384E08F8387E088873B
:1017F00088E0898761E082E00E94BB0D61E08F8113
:101800000E94BB0D61E088850E94BB0D61E0898567
:10181000DF91CF910C94BB0DCF93DF93EC016DE87A
:1018200071E08EE192E00E94C60260EC71E08EE110
:1018300092E00E94B902688179814AE050E08EE12D
:1018400092E00E946B036AEC71E08EE192E00E94EC
:10185000B9026A817B814AE050E08EE192E00E9409
:101860006B036CEC71E08EE192E00E94B90260E7DC
:1018700071E08EE192E00E94C6026EEC71E08EE1B2
:1018800092E00E94C60268ED71E08EE192E00E9453
:10189000B9024AE050E06C818EE192E00E9486033A
:1018A00065EE71E08EE192E00E94B9024AE050E0FC
:1018B0006E818EE192E00E947F036AEC71E08EE11E
:1018C00092E00E94B9024AE050E06F818EE192E01E
:1018D0000E947F036CEC71E08EE192E00E94B902FD
:1018E00060E771E08EE192E00E94C60263EF71E072
:1018F0008EE192E00E94C60268ED71E08EE192E016
:101900000E94B9024AE050E06D818EE192E00E94AF
:101910007F036DEF71E08EE192E00E94B9024AE030
:1019200050E068858EE192E00E947F036AEC71E0EE
:101930008EE192E00E94B9024AE050E069858EE1B2
:1019400092E00E947F036CEC71E08EE192E00E94D5
:10195000B90260E771E08EE192E0DF91CF910C94E3
:10196000C602CF92DF92EF92FF920F931F93CF9315
:10197000DF93EC016B017A0189010E940C0C64E396
:1019800071E0C8010E946110892B59F46BE271E08B
:10199000C8010E94611061E0892B09F460E010E049
:1019A00002C011E060E081E0C816D10471F082E06D
:1019B000C816D104E9F488850E94F70D612F898546
:1019C0000E94F70DB7018D8109C08E810E94F70D2D
:1019D000612F8F810E94F70DB7018C81DF91CF912C
:1019E0001F910F91FF90EF90DF90CF900C94330DEB
:1019F000DF91CF911F910F91FF90EF90DF90CF90EB
:101A00000895CF93DF93EC0183E08C8385E08D8391
:101A100061E083E00E94BB0D61E08D810E94BB0DFF
:101A20002CE331E040E050E061E070E0CE010E9444
:101A3000B10C2CE331E040E050E062E070E0CE0118
:101A4000DF91CF910C94B10CCF93DF93EC010E9406
:101A5000010DCE010E94EF0B198218821B821A829F
:101A6000DF91CF9108951F93CF93DF93182FEB0150
:101A700061E00E94BB0D209711F460E004C0CF3FED
:101A8000D10539F461E0812FDF91CF911F910C9442
:101A9000F70DE12FF0E0E859FF4FE491E330F9F062
:101AA00048F4E130B9F0E230A1F584B5806284BD3C
:101AB000C8BD34C0E730E9F0E83019F1E43049F549
:101AC00080918000806280938000D0938B00C093CF
:101AD0008A0024C084B5806884BDC7BD1FC08091C2
:101AE0008000806880938000D0938900C093880034
:101AF00015C08091B00080688093B000C093B3009F
:101B00000DC08091B00080628093B000C093B4009B
:101B100005C0C038D1050CF0B5CFAFCFDF91CF9164
:101B20001F910895833081F028F4813099F082303C
:101B3000A1F008958730A9F08830B9F08430D1F44D
:101B4000809180008F7D03C0809180008F7780938B
:101B50008000089584B58F7702C084B58F7D84BDE1
:101B600008958091B0008F7703C08091B0008F7D81
:101B70008093B0000895CF93DF9390E0FC01E45888
:101B8000FF4F2491FC01E057FF4F8491882361F1BE
:101B900090E0880F991FFC01E255FF4FC591D49149
:101BA000FC01EC55FF4FA591B491611109C09FB79D
:101BB000F8948881209582238883EC912E230BC092
:101BC000623061F49FB7F8943881822F8095832327
:101BD0008883EC912E2B2C939FBF06C08FB7F8946F
:101BE000E8812E2B28838FBFDF91CF9108951F931B
:101BF000CF93DF93282F30E0F901E859FF4F84910C
:101C0000F901E458FF4FD491F901E057FF4FC49117
:101C1000CC23C9F0162F81110E94920DEC2FF0E019
:101C2000EE0FFF1FEC55FF4FA591B4918FB7F894BD
:101C3000111105C09C91ED2FE095E92302C0EC91B4
:101C4000ED2BEC938FBFDF91CF911F910895DB01B6
:101C50008F939F930E94780EBF91AF91A29F800DAA
:101C6000911DA39F900DB29F900D11240895A1E2A4
:101C70001A2EAA1BBB1BFD010DC0AA1FBB1FEE1F06
:101C8000FF1FA217B307E407F50720F0A21BB30B51
:101C9000E40BF50B661F771F881F991F1A9469F7CD
:101CA00060957095809590959B01AC01BD01CF0129
:101CB0000895052E97FB1EF400940E94700E57FDA8
:101CC00007D00E94370E07FC03D04EF40C94700E20
:101CD00050954095309521953F4F4F4F5F4F089558
:101CE00090958095709561957F4F8F4F9F4F089588
:101CF0000E94890EA59F900DB49F900DA49F800D0A
:101D0000911D11240895EE0FFF1F0590F491E02D11
:101D10000994A29FB001B39FC001A39F700D811DC4
:101D20001124911DB29F700D811D1124911D0895E4
:101D30000E949F0E6894B1110C942E0F08950E947A
:101D4000130F88F09F5798F0B92F9927B751B0F02B
:101D5000E1F0660F771F881F991F1AF0BA95C9F72F
:101D600014C0B13091F00E942D0FB1E008950C9491
:101D70002D0F672F782F8827B85F39F0B93FCCF344
:101D8000869577956795B395D9F73EF490958095AC
:101D9000709561957F4F8F4F9F4F0895E89409C0CC
:101DA00097FB3EF490958095709561957F4F8F4F8E
:101DB0009F4F9923A9F0F92F96E9BB279395F695A4
:101DC000879577956795B795F111F8CFFAF4BB0F22
:101DD00011F460FF1BC06F5F7F4F8F4F9F4F16C086
:101DE000882311F096E911C0772321F09EE8872F10
:101DF000762F05C0662371F096E8862F70E060E0CC
:101E00002AF09A95660F771F881FDAF7880F969544
:101E1000879597F9089557FD9058440F551F59F02D
:101E20005F3F71F04795880F97FB991F61F09F3FC7
:101E300079F087950895121613061406551FF2CFF0
:101E40004695F1DF08C0161617061806991FF1CF40
:101E500086957105610508940895E894BB27662767
:101E60007727CB0197F90895CF93DF9382309105BF
:101E700010F482E090E0E0918603F091870320E087
:101E800030E0C0E0D0E0309711F140815181481737
:101E90005907C0F04817590761F482819381209750
:101EA00019F09B838A832BC09093870380938603CA
:101EB00026C02115310519F04217530718F49A016D
:101EC000BE01DF01EF010280F381E02DDCCF21159F
:101ED000310509F1281B390B2430310590F4129695
:101EE0008D919C9113976115710521F0FB019383EE
:101EF000828304C09093870380938603FD0132960A
:101F000044C0FD01E20FF31F8193919322503109E8
:101F10002D933C933AC02091840330918503232B69
:101F200041F4209102013091030130938503209305
:101F3000840320910001309101012115310541F404
:101F40002DB73EB74091040150910501241B350B7C
:101F5000E0918403F0918503E217F307A0F42E1BB0
:101F60003F0B2817390778F0AC014E5F5F4F2417FD
:101F7000350748F04E0F5F1F50938503409384034D
:101F80008193919302C0E0E0F0E0CF01DF91CF9127
:101F900008950F931F93CF93DF93009709F48CC09C
:101FA000FC013297138212820091860310918703FD
:101FB0000115110581F420813181820F931F209139
:101FC0008403309185032817390779F5F093850349
:101FD000E093840371C0D80140E050E0AE17BF0722
:101FE00050F412962D913C911397AD0121153105B6
:101FF00009F1D901F3CF9D01DA0133832283608196
:102000007181860F971F8217930769F4EC0128816D
:102010003981260F371F2E5F3F4F318320838A81FE
:102020009B8193838283452B29F4F0938703E0936C
:10203000860342C01396FC93EE931297ED014991EB
:1020400059919E01240F351FE217F30771F4808127
:102050009181840F951F029611969C938E93828195
:10206000938113969C938E931297E0E0F0E0D80151
:1020700012968D919C911397009719F0F8018C019D
:10208000F6CF8D919C9198012E5F3F4F820F931F49
:1020900020918403309185032817390769F430971C
:1020A00029F4109287031092860302C013821282D1
:1020B0001093850300938403DF91CF911F910F91BB
:1020C0000895FB01DC018D91019080190110D9F375
:1020D000990B089510E0CFE5D0E004C0FE010E9406
:0E20E000830E2196C036D107C9F7F894FFCFC2
:1020EE0000008803800001000000000000003E0197
:1020FE007902BF00D900CB001C010D0A006E616E83
:10210E0000696E66006F7666002E004241434B57A3
:10211E0041524400464F52574152440052454C459D
:10212E00415345002A2A2A2A2A2A2A2A2A2A2A2AD0
:10213E00204F626A6563742057696920436875632E
:10214E006B202A2A2A2A2A2A2A2A2A2A2A2A0009F5
:10215E0000427574746F6E205A203A200000000001
:10216E0000F008C00894089C08B008BF082A2A2A64
:10217E002A2A2A2A2A2A2A2A2A2A2A2A204F626A1E
:10218E0065637420496E74657266616365203A20DA
:10219E002A2A2A2A2A2A2A2A2A2A2A2A2A2A2A00BB
:1021AE005370656564203A2028002C0029004D6F7D
:1021BE00746F722031203A0050696E456E61626C08
:1021CE0065203A200050696E436F6E74726F6C73A7
:1021DE002028004D6F746F722032203A0050696EC5
:0E21EE00436F6E74726F6C73203A20280000ED
:00000001FF
