:100000000C9453000C947B000C947B000C947B00AC
:100010000C947B000C947B000C947B000C947B0074
:100020000C947B000C947B000C947B000C947B0064
:100030000C947B000C947B000C947B000C947B0054
:100040000C948D000C947B000C947B000C947B0032
:100050000C947B000C947B000C947B000C947B0034
:100060000C947B000C947B0001020408102040805B
:1000700001020408102001020408102004040404F2
:100080000404040402020202020203030303030342
:1000900000000000250028002B00000000002400C4
:1000A00027002A00890011241FBECFEFD8E0DEBF51
:1000B000CDBF11E0A0E0B1E0EAE2F3E002C00590BC
:1000C0000D92A030B107D9F721E0A0E0B1E001C066
:1000D0001D92A131B207E1F710E0C3E5D0E004C002
:1000E0002197FE010E948D01C235D107C9F70E94F8
:1000F0007E000C9493010C94000008950E94D70098
:100100000E947D00C0E0D0E02097F1F30E94000043
:10011000FBCF80E091E00C944F011F920F920FB63D
:100120000F9211242F933F938F939F93AF93BF937D
:100130008091090190910A01A0910B01B0910C01ED
:100140003091080123E0230F2D3720F40196A11DE3
:10015000B11D05C026E8230F0296A11DB11D2093F5
:1001600008018093090190930A01A0930B01B093B9
:100170000C0180910D0190910E01A0910F01B091A1
:1001800010010196A11DB11D80930D0190930E01E8
:10019000A0930F01B0931001BF91AF919F918F91E8
:1001A0003F912F910F900FBE0F901F90189578944C
:1001B00084B5826084BD84B5816084BD85B582606C
:1001C00085BD85B5816085BDEEE6F0E0808181600A
:1001D0008083E1E8F0E0108280818260808380810A
:1001E00081608083E0E8F0E0808181608083E1EBE2
:1001F000F0E0808184608083E0EBF0E080818160CA
:100200008083EAE7F0E0808184608083808182607F
:100210008083808181608083808180688083109268
:10022000C1000895CF93DF93EC0183E08A8385E0DA
:100230008B8361E083E00E94510161E08B81DF915B
:10024000CF910C945101CF93DF93EC0182E08C832A
:1002500084E08D8387E08E8388E08F8361E082E095
:100260000E94510161E08D810E94510161E08E8107
:100270000E94510161E08F81DF91CF910C94510177
:10028000CF93DF93EC010E941201CE010E94230163
:100290008FEF90E099838883DF91CF9108950C943C
:1002A0004001CF93DF9390E0FC01E859FF4F249188
:1002B000FC01E458FF4F8491882361F190E0880F9E
:1002C000991FFC01E656FF4FC591D491FC01E05700
:1002D000FF4FA591B491611109C09FB7F89488812F
:1002E000209582238883EC912E230BC0623061F429
:1002F0009FB7F8943881822F809583238883EC916F
:100300002E2B2C939FBF06C08FB7F894E8812E2B1D
:1003100028838FBFDF91CF910895EE0FFF1F0590C7
:0A032000F491E02D0994F894FFCF4A
:00000001FF
